{
  "contractName": "DriveSlowSafe",
  "abi": [
    {
      "inputs": [],
      "payable": true,
      "stateMutability": "payable",
      "type": "constructor"
    },
    {
      "constant": true,
      "inputs": [],
      "name": "administrator",
      "outputs": [
        {
          "internalType": "address payable",
          "name": "",
          "type": "address"
        }
      ],
      "payable": false,
      "stateMutability": "view",
      "type": "function"
    },
    {
      "constant": true,
      "inputs": [],
      "name": "alpha",
      "outputs": [
        {
          "internalType": "uint32",
          "name": "",
          "type": "uint32"
        }
      ],
      "payable": false,
      "stateMutability": "view",
      "type": "function"
    },
    {
      "constant": true,
      "inputs": [],
      "name": "balance",
      "outputs": [
        {
          "internalType": "uint256",
          "name": "",
          "type": "uint256"
        }
      ],
      "payable": false,
      "stateMutability": "view",
      "type": "function"
    },
    {
      "constant": true,
      "inputs": [
        {
          "internalType": "bytes32",
          "name": "",
          "type": "bytes32"
        }
      ],
      "name": "cars",
      "outputs": [
        {
          "internalType": "bool",
          "name": "registered",
          "type": "bool"
        },
        {
          "internalType": "string",
          "name": "brand",
          "type": "string"
        },
        {
          "internalType": "string",
          "name": "model",
          "type": "string"
        },
        {
          "internalType": "string",
          "name": "year",
          "type": "string"
        }
      ],
      "payable": false,
      "stateMutability": "view",
      "type": "function"
    },
    {
      "constant": true,
      "inputs": [
        {
          "internalType": "bytes32",
          "name": "",
          "type": "bytes32"
        }
      ],
      "name": "dataPoints",
      "outputs": [
        {
          "internalType": "string",
          "name": "latitude",
          "type": "string"
        },
        {
          "internalType": "string",
          "name": "longitude",
          "type": "string"
        },
        {
          "internalType": "string",
          "name": "random",
          "type": "string"
        },
        {
          "internalType": "string",
          "name": "timestamp",
          "type": "string"
        }
      ],
      "payable": false,
      "stateMutability": "view",
      "type": "function"
    },
    {
      "constant": true,
      "inputs": [
        {
          "internalType": "uint256",
          "name": "",
          "type": "uint256"
        }
      ],
      "name": "deviceIDs",
      "outputs": [
        {
          "internalType": "bytes32",
          "name": "",
          "type": "bytes32"
        }
      ],
      "payable": false,
      "stateMutability": "view",
      "type": "function"
    },
    {
      "constant": true,
      "inputs": [
        {
          "internalType": "address",
          "name": "",
          "type": "address"
        }
      ],
      "name": "devices",
      "outputs": [
        {
          "internalType": "string",
          "name": "imei",
          "type": "string"
        },
        {
          "internalType": "bool",
          "name": "hasOrder",
          "type": "bool"
        },
        {
          "internalType": "enum DriveSlowSafe.Status",
          "name": "status",
          "type": "uint8"
        },
        {
          "internalType": "bytes32",
          "name": "policy",
          "type": "bytes32"
        }
      ],
      "payable": false,
      "stateMutability": "view",
      "type": "function"
    },
    {
      "constant": true,
      "inputs": [
        {
          "internalType": "address",
          "name": "",
          "type": "address"
        }
      ],
      "name": "holders",
      "outputs": [
        {
          "internalType": "bool",
          "name": "isActive",
          "type": "bool"
        },
        {
          "internalType": "uint256",
          "name": "rating",
          "type": "uint256"
        },
        {
          "internalType": "uint256",
          "name": "multiplier",
          "type": "uint256"
        },
        {
          "internalType": "uint256",
          "name": "penaltyMultiplier",
          "type": "uint256"
        },
        {
          "internalType": "uint256",
          "name": "accumulatedKM",
          "type": "uint256"
        }
      ],
      "payable": false,
      "stateMutability": "view",
      "type": "function"
    },
    {
      "constant": true,
      "inputs": [
        {
          "internalType": "address",
          "name": "",
          "type": "address"
        }
      ],
      "name": "partners",
      "outputs": [
        {
          "internalType": "bool",
          "name": "registered",
          "type": "bool"
        },
        {
          "internalType": "string",
          "name": "name",
          "type": "string"
        }
      ],
      "payable": false,
      "stateMutability": "view",
      "type": "function"
    },
    {
      "constant": true,
      "inputs": [
        {
          "internalType": "bytes32",
          "name": "",
          "type": "bytes32"
        }
      ],
      "name": "policies",
      "outputs": [
        {
          "internalType": "bool",
          "name": "isActive",
          "type": "bool"
        },
        {
          "internalType": "address",
          "name": "policyHolder",
          "type": "address"
        },
        {
          "internalType": "bytes32",
          "name": "car",
          "type": "bytes32"
        },
        {
          "internalType": "address",
          "name": "device",
          "type": "address"
        },
        {
          "internalType": "uint256",
          "name": "premium",
          "type": "uint256"
        },
        {
          "internalType": "uint256",
          "name": "locked",
          "type": "uint256"
        }
      ],
      "payable": false,
      "stateMutability": "view",
      "type": "function"
    },
    {
      "constant": true,
      "inputs": [],
      "name": "speed",
      "outputs": [
        {
          "internalType": "uint32",
          "name": "",
          "type": "uint32"
        }
      ],
      "payable": false,
      "stateMutability": "view",
      "type": "function"
    },
    {
      "constant": false,
      "inputs": [
        {
          "internalType": "address",
          "name": "_walletAddress",
          "type": "address"
        },
        {
          "internalType": "string",
          "name": "_imei",
          "type": "string"
        }
      ],
      "name": "approveDevice",
      "outputs": [],
      "payable": false,
      "stateMutability": "nonpayable",
      "type": "function"
    },
    {
      "constant": false,
      "inputs": [
        {
          "internalType": "address",
          "name": "_partner",
          "type": "address"
        },
        {
          "internalType": "string",
          "name": "name",
          "type": "string"
        }
      ],
      "name": "registerPartner",
      "outputs": [],
      "payable": false,
      "stateMutability": "nonpayable",
      "type": "function"
    },
    {
      "constant": false,
      "inputs": [],
      "name": "kill",
      "outputs": [],
      "payable": false,
      "stateMutability": "nonpayable",
      "type": "function"
    },
    {
      "constant": false,
      "inputs": [
        {
          "internalType": "string",
          "name": "_brand",
          "type": "string"
        },
        {
          "internalType": "string",
          "name": "_model",
          "type": "string"
        },
        {
          "internalType": "string",
          "name": "_year",
          "type": "string"
        },
        {
          "internalType": "address",
          "name": "_device",
          "type": "address"
        }
      ],
      "name": "signPolicy",
      "outputs": [],
      "payable": true,
      "stateMutability": "payable",
      "type": "function"
    },
    {
      "constant": false,
      "inputs": [
        {
          "internalType": "address payable",
          "name": "_partner",
          "type": "address"
        },
        {
          "internalType": "bytes32",
          "name": "_policy",
          "type": "bytes32"
        }
      ],
      "name": "payRepair",
      "outputs": [],
      "payable": true,
      "stateMutability": "payable",
      "type": "function"
    },
    {
      "constant": false,
      "inputs": [
        {
          "internalType": "string",
          "name": "_accel1",
          "type": "string"
        },
        {
          "internalType": "string",
          "name": "_accel2",
          "type": "string"
        },
        {
          "internalType": "string",
          "name": "_accel3",
          "type": "string"
        },
        {
          "internalType": "string",
          "name": "_latitude",
          "type": "string"
        },
        {
          "internalType": "string",
          "name": "_longitude",
          "type": "string"
        },
        {
          "internalType": "string",
          "name": "_random",
          "type": "string"
        },
        {
          "internalType": "string",
          "name": "_timestamp",
          "type": "string"
        },
        {
          "internalType": "bytes32",
          "name": "_r",
          "type": "bytes32"
        },
        {
          "internalType": "bytes32",
          "name": "_s",
          "type": "bytes32"
        }
      ],
      "name": "receiveMessage",
      "outputs": [],
      "payable": false,
      "stateMutability": "nonpayable",
      "type": "function"
    },
    {
      "constant": false,
      "inputs": [
        {
          "internalType": "bytes32",
          "name": "_policy",
          "type": "bytes32"
        }
      ],
      "name": "cancelPolicy",
      "outputs": [],
      "payable": false,
      "stateMutability": "nonpayable",
      "type": "function"
    },
    {
      "constant": true,
      "inputs": [],
      "name": "showMyPenalties",
      "outputs": [
        {
          "internalType": "bytes32[]",
          "name": "",
          "type": "bytes32[]"
        }
      ],
      "payable": false,
      "stateMutability": "view",
      "type": "function"
    }
  ],
  "bytecode": "0x6080604052600a600860006101000a81548163ffffffff021916908363ffffffff1602179055506032600860046101000a81548163ffffffff021916908363ffffffff160217905550600034116100be576040517f08c379a000000000000000000000000000000000000000000000000000000000815260040180806020018281038252601e8152602001807f54686520636f6e7472616374206e65656420746f2062652066756e646564000081525060200191505060405180910390fd5b336000806101000a81548173ffffffffffffffffffffffffffffffffffffffff021916908373ffffffffffffffffffffffffffffffffffffffff16021790555034600981905550613dba806101146000396000f3fe6080604052600436106101145760003560e01c806395c33652116100a0578063ddbfd8ef11610064578063ddbfd8ef14610d45578063dfcce8dc14610e13578063e7b4cac61461101c578063e8f31a5f1461110d578063f53d0a8e146111f557610114565b806395c3365214610b9c578063a86146d014610c71578063b69ef8a814610cac578063c20906ac14610cd7578063db1d0fd514610d0e57610114565b80633185c631116100e75780633185c631146103f057806341c0e1b5146105e857806350c1e3d5146105ff578063705ed911146106e75780637f6bb32414610b4e57610114565b806318a5bbdc146101195780632993f1ed1461019e5780632f4e81c61461020a57806330425cc4146103a1575b600080fd5b34801561012557600080fd5b506101686004803603602081101561013c57600080fd5b81019080803573ffffffffffffffffffffffffffffffffffffffff16906020019092919050505061124c565b60405180861515151581526020018581526020018481526020018381526020018281526020019550505050505060405180910390f35b3480156101aa57600080fd5b506101b361128f565b6040518080602001828103825283818151815260200191508051906020019060200280838360005b838110156101f65780820151818401526020810190506101db565b505050509050019250505060405180910390f35b34801561021657600080fd5b506102436004803603602081101561022d57600080fd5b8101908080359060200190929190505050611327565b6040518085151515158152602001806020018060200180602001848103845287818151815260200191508051906020019080838360005b8381101561029557808201518184015260208101905061027a565b50505050905090810190601f1680156102c25780820380516001836020036101000a031916815260200191505b50848103835286818151815260200191508051906020019080838360005b838110156102fb5780820151818401526020810190506102e0565b50505050905090810190601f1680156103285780820380516001836020036101000a031916815260200191505b50848103825285818151815260200191508051906020019080838360005b83811015610361578082015181840152602081019050610346565b50505050905090810190601f16801561038e5780820380516001836020036101000a031916815260200191505b5097505050505050505060405180910390f35b3480156103ad57600080fd5b506103da600480360360208110156103c457600080fd5b810190808035906020019092919050505061152c565b6040518082815260200191505060405180910390f35b3480156103fc57600080fd5b506104296004803603602081101561041357600080fd5b810190808035906020019092919050505061154d565b6040518080602001806020018060200180602001858103855289818151815260200191508051906020019080838360005b8381101561047557808201518184015260208101905061045a565b50505050905090810190601f1680156104a25780820380516001836020036101000a031916815260200191505b50858103845288818151815260200191508051906020019080838360005b838110156104db5780820151818401526020810190506104c0565b50505050905090810190601f1680156105085780820380516001836020036101000a031916815260200191505b50858103835287818151815260200191508051906020019080838360005b83811015610541578082015181840152602081019050610526565b50505050905090810190601f16801561056e5780820380516001836020036101000a031916815260200191505b50858103825286818151815260200191508051906020019080838360005b838110156105a757808201518184015260208101905061058c565b50505050905090810190601f1680156105d45780820380516001836020036101000a031916815260200191505b509850505050505050505060405180910390f35b3480156105f457600080fd5b506105fd6117dd565b005b34801561060b57600080fd5b506106e56004803603604081101561062257600080fd5b81019080803573ffffffffffffffffffffffffffffffffffffffff1690602001909291908035906020019064010000000081111561065f57600080fd5b82018360208201111561067157600080fd5b8035906020019184600183028401116401000000008311171561069357600080fd5b91908080601f016020809104026020016040519081016040528093929190818152602001838380828437600081840152601f19601f8201169050808301925050505050505091929192905050506118bc565b005b3480156106f357600080fd5b50610b4c600480360361012081101561070b57600080fd5b810190808035906020019064010000000081111561072857600080fd5b82018360208201111561073a57600080fd5b8035906020019184600183028401116401000000008311171561075c57600080fd5b91908080601f016020809104026020016040519081016040528093929190818152602001838380828437600081840152601f19601f820116905080830192505050505050509192919290803590602001906401000000008111156107bf57600080fd5b8201836020820111156107d157600080fd5b803590602001918460018302840111640100000000831117156107f357600080fd5b91908080601f016020809104026020016040519081016040528093929190818152602001838380828437600081840152601f19601f8201169050808301925050505050505091929192908035906020019064010000000081111561085657600080fd5b82018360208201111561086857600080fd5b8035906020019184600183028401116401000000008311171561088a57600080fd5b91908080601f016020809104026020016040519081016040528093929190818152602001838380828437600081840152601f19601f820116905080830192505050505050509192919290803590602001906401000000008111156108ed57600080fd5b8201836020820111156108ff57600080fd5b8035906020019184600183028401116401000000008311171561092157600080fd5b91908080601f016020809104026020016040519081016040528093929190818152602001838380828437600081840152601f19601f8201169050808301925050505050505091929192908035906020019064010000000081111561098457600080fd5b82018360208201111561099657600080fd5b803590602001918460018302840111640100000000831117156109b857600080fd5b91908080601f016020809104026020016040519081016040528093929190818152602001838380828437600081840152601f19601f82011690508083019250505050505050919291929080359060200190640100000000811115610a1b57600080fd5b820183602082011115610a2d57600080fd5b80359060200191846001830284011164010000000083111715610a4f57600080fd5b91908080601f016020809104026020016040519081016040528093929190818152602001838380828437600081840152601f19601f82011690508083019250505050505050919291929080359060200190640100000000811115610ab257600080fd5b820183602082011115610ac457600080fd5b80359060200191846001830284011164010000000083111715610ae657600080fd5b91908080601f016020809104026020016040519081016040528093929190818152602001838380828437600081840152601f19601f8201169050808301925050505050505091929192908035906020019092919080359060200190929190505050611aa2565b005b610b9a60048036036040811015610b6457600080fd5b81019080803573ffffffffffffffffffffffffffffffffffffffff16906020019092919080359060200190929190505050612125565b005b348015610ba857600080fd5b50610beb60048036036020811015610bbf57600080fd5b81019080803573ffffffffffffffffffffffffffffffffffffffff1690602001909291905050506124a1565b604051808315151515815260200180602001828103825283818151815260200191508051906020019080838360005b83811015610c35578082015181840152602081019050610c1a565b50505050905090810190601f168015610c625780820380516001836020036101000a031916815260200191505b50935050505060405180910390f35b348015610c7d57600080fd5b50610caa60048036036020811015610c9457600080fd5b810190808035906020019092919050505061256a565b005b348015610cb857600080fd5b50610cc16126c5565b6040518082815260200191505060405180910390f35b348015610ce357600080fd5b50610cec6126cb565b604051808263ffffffff1663ffffffff16815260200191505060405180910390f35b348015610d1a57600080fd5b50610d236126e1565b604051808263ffffffff1663ffffffff16815260200191505060405180910390f35b348015610d5157600080fd5b50610d7e60048036036020811015610d6857600080fd5b81019080803590602001909291905050506126f7565b60405180871515151581526020018673ffffffffffffffffffffffffffffffffffffffff1673ffffffffffffffffffffffffffffffffffffffff1681526020018581526020018473ffffffffffffffffffffffffffffffffffffffff1673ffffffffffffffffffffffffffffffffffffffff168152602001838152602001828152602001965050505050505060405180910390f35b61101a60048036036080811015610e2957600080fd5b8101908080359060200190640100000000811115610e4657600080fd5b820183602082011115610e5857600080fd5b80359060200191846001830284011164010000000083111715610e7a57600080fd5b91908080601f016020809104026020016040519081016040528093929190818152602001838380828437600081840152601f19601f82011690508083019250505050505050919291929080359060200190640100000000811115610edd57600080fd5b820183602082011115610eef57600080fd5b80359060200191846001830284011164010000000083111715610f1157600080fd5b91908080601f016020809104026020016040519081016040528093929190818152602001838380828437600081840152601f19601f82011690508083019250505050505050919291929080359060200190640100000000811115610f7457600080fd5b820183602082011115610f8657600080fd5b80359060200191846001830284011164010000000083111715610fa857600080fd5b91908080601f016020809104026020016040519081016040528093929190818152602001838380828437600081840152601f19601f820116905080830192505050505050509192919290803573ffffffffffffffffffffffffffffffffffffffff169060200190929190505050612780565b005b34801561102857600080fd5b5061106b6004803603602081101561103f57600080fd5b81019080803573ffffffffffffffffffffffffffffffffffffffff169060200190929190505050612dbb565b60405180806020018515151515815260200184600281111561108957fe5b60ff168152602001838152602001828103825286818151815260200191508051906020019080838360005b838110156110cf5780820151818401526020810190506110b4565b50505050905090810190601f1680156110fc5780820380516001836020036101000a031916815260200191505b509550505050505060405180910390f35b34801561111957600080fd5b506111f36004803603604081101561113057600080fd5b81019080803573ffffffffffffffffffffffffffffffffffffffff1690602001909291908035906020019064010000000081111561116d57600080fd5b82018360208201111561117f57600080fd5b803590602001918460018302840111640100000000831117156111a157600080fd5b91908080601f016020809104026020016040519081016040528093929190818152602001838380828437600081840152601f19601f820116905080830192505050505050509192919290505050612e9d565b005b34801561120157600080fd5b5061120a61317e565b604051808273ffffffffffffffffffffffffffffffffffffffff1673ffffffffffffffffffffffffffffffffffffffff16815260200191505060405180910390f35b60026020528060005260406000206000915090508060000160009054906101000a900460ff16908060010154908060020154908060030154908060040154905085565b6060600260003373ffffffffffffffffffffffffffffffffffffffff1673ffffffffffffffffffffffffffffffffffffffff16815260200190815260200160002060050180548060200260200160405190810160405280929190818152602001828054801561131d57602002820191906000526020600020905b815481526020019060010190808311611309575b5050505050905090565b60036020528060005260406000206000915090508060000160009054906101000a900460ff1690806001018054600181600116156101000203166002900480601f0160208091040260200160405190810160405280929190818152602001828054600181600116156101000203166002900480156113e65780601f106113bb576101008083540402835291602001916113e6565b820191906000526020600020905b8154815290600101906020018083116113c957829003601f168201915b505050505090806002018054600181600116156101000203166002900480601f0160208091040260200160405190810160405280929190818152602001828054600181600116156101000203166002900480156114845780601f1061145957610100808354040283529160200191611484565b820191906000526020600020905b81548152906001019060200180831161146757829003601f168201915b505050505090806003018054600181600116156101000203166002900480601f0160208091040260200160405190810160405280929190818152602001828054600181600116156101000203166002900480156115225780601f106114f757610100808354040283529160200191611522565b820191906000526020600020905b81548152906001019060200180831161150557829003601f168201915b5050505050905084565b6001818154811061153957fe5b906000526020600020016000915090505481565b6006602052806000526040600020600091509050806003018054600181600116156101000203166002900480601f0160208091040260200160405190810160405280929190818152602001828054600181600116156101000203166002900480156115f95780601f106115ce576101008083540402835291602001916115f9565b820191906000526020600020905b8154815290600101906020018083116115dc57829003601f168201915b505050505090806004018054600181600116156101000203166002900480601f0160208091040260200160405190810160405280929190818152602001828054600181600116156101000203166002900480156116975780601f1061166c57610100808354040283529160200191611697565b820191906000526020600020905b81548152906001019060200180831161167a57829003601f168201915b505050505090806005018054600181600116156101000203166002900480601f0160208091040260200160405190810160405280929190818152602001828054600181600116156101000203166002900480156117355780601f1061170a57610100808354040283529160200191611735565b820191906000526020600020905b81548152906001019060200180831161171857829003601f168201915b505050505090806006018054600181600116156101000203166002900480601f0160208091040260200160405190810160405280929190818152602001828054600181600116156101000203166002900480156117d35780601f106117a8576101008083540402835291602001916117d3565b820191906000526020600020905b8154815290600101906020018083116117b657829003601f168201915b5050505050905084565b6000809054906101000a900473ffffffffffffffffffffffffffffffffffffffff1673ffffffffffffffffffffffffffffffffffffffff163373ffffffffffffffffffffffffffffffffffffffff1614611882576040517f08c379a0000000000000000000000000000000000000000000000000000000008152600401808060200182810382526029815260200180613d0f6029913960400191505060405180910390fd5b6000809054906101000a900473ffffffffffffffffffffffffffffffffffffffff1673ffffffffffffffffffffffffffffffffffffffff16ff5b6000809054906101000a900473ffffffffffffffffffffffffffffffffffffffff1673ffffffffffffffffffffffffffffffffffffffff163373ffffffffffffffffffffffffffffffffffffffff1614611961576040517f08c379a0000000000000000000000000000000000000000000000000000000008152600401808060200182810382526029815260200180613d0f6029913960400191505060405180910390fd5b600760008373ffffffffffffffffffffffffffffffffffffffff1673ffffffffffffffffffffffffffffffffffffffff16815260200190815260200160002060000160009054906101000a900460ff1615611a07576040517f08c379a0000000000000000000000000000000000000000000000000000000008152600401808060200182810382526028815260200180613d5e6028913960400191505060405180910390fd5b604051806040016040528060011515815260200182815250600760008473ffffffffffffffffffffffffffffffffffffffff1673ffffffffffffffffffffffffffffffffffffffff16815260200190815260200160002060008201518160000160006101000a81548160ff0219169083151502179055506020820151816001019080519060200190611a9a9291906139bc565b509050505050565b60608989898989888a60405160200180807f7b226d657373616765223a7b22616363656c65726f6d65746572223a5b000000815250601d0188805190602001908083835b60208310611b095780518252602082019150602081019050602083039250611ae6565b6001836020036101000a038019825116818451168082178552505050505050905001807f2c0000000000000000000000000000000000000000000000000000000000000081525060010187805190602001908083835b60208310611b825780518252602082019150602081019050602083039250611b5f565b6001836020036101000a038019825116818451168082178552505050505050905001807f2c0000000000000000000000000000000000000000000000000000000000000081525060010186805190602001908083835b60208310611bfb5780518252602082019150602081019050602083039250611bd8565b6001836020036101000a038019825116818451168082178552505050505050905001807f5d2c226c61746974756465223a00000000000000000000000000000000000000815250600d0185805190602001908083835b60208310611c745780518252602082019150602081019050602083039250611c51565b6001836020036101000a038019825116818451168082178552505050505050905001807f2c226c6f6e676974756465223a00000000000000000000000000000000000000815250600d0184805190602001908083835b60208310611ced5780518252602082019150602081019050602083039250611cca565b6001836020036101000a038019825116818451168082178552505050505050905001807f2c2274696d657374616d70223a22000000000000000000000000000000000000815250600e0183805190602001908083835b60208310611d665780518252602082019150602081019050602083039250611d43565b6001836020036101000a038019825116818451168082178552505050505050905001807f222c2272616e646f6d223a220000000000000000000000000000000000000000815250600c0182805190602001908083835b60208310611ddf5780518252602082019150602081019050602083039250611dbc565b6001836020036101000a038019825116818451168082178552505050505050905001807f227d7d000000000000000000000000000000000000000000000000000000000081525060030197505050505050505060405160208183030381529060405290506000818051906020012090506000611e5c8286866131a3565b9050600073ffffffffffffffffffffffffffffffffffffffff168173ffffffffffffffffffffffffffffffffffffffff161415611ee4576040517f08c379a0000000000000000000000000000000000000000000000000000000008152600401808060200182810382526029815260200180613ce66029913960400191505060405180910390fd5b600460008273ffffffffffffffffffffffffffffffffffffffff1673ffffffffffffffffffffffffffffffffffffffff16815260200190815260200160002060010160009054906101000a900460ff16611fa6576040517f08c379a000000000000000000000000000000000000000000000000000000000815260040180806020018281038252601c8152602001807f546869732064657669636520686173206e6f206f72646572207965740000000081525060200191505060405180910390fd5b6040518060a0016040528060405180606001604052808f81526020018e81526020018d81525081526020018a81526020018981526020018881526020018781525060066000848152602001908152602001600020600082015181600001906003612011929190613a3c565b50602082015181600301908051906020019061202e9291906139bc565b50604082015181600401908051906020019061204b9291906139bc565b5060608201518160050190805190602001906120689291906139bc565b5060808201518160060190805190602001906120859291906139bc565b509050506000600460008373ffffffffffffffffffffffffffffffffffffffff1673ffffffffffffffffffffffffffffffffffffffff16815260200190815260200160002060020154905060006005600083815260200190815260200160002060000160019054906101000a900473ffffffffffffffffffffffffffffffffffffffff16905061211581856132b1565b5050505050505050505050505050565b6000341161217e576040517f08c379a0000000000000000000000000000000000000000000000000000000008152600401808060200182810382526024815260200180613c816024913960400191505060405180910390fd5b600760008373ffffffffffffffffffffffffffffffffffffffff1673ffffffffffffffffffffffffffffffffffffffff16815260200190815260200160002060000160009054906101000a900460ff16612223576040517f08c379a0000000000000000000000000000000000000000000000000000000008152600401808060200182810382526041815260200180613ca56041913960600191505060405180910390fd5b3373ffffffffffffffffffffffffffffffffffffffff166005600083815260200190815260200160002060000160019054906101000a900473ffffffffffffffffffffffffffffffffffffffff1673ffffffffffffffffffffffffffffffffffffffff16146122dd576040517f08c379a000000000000000000000000000000000000000000000000000000000815260040180806020018281038252602c815260200180613c55602c913960400191505060405180910390fd5b60006005600083815260200190815260200160002060040154600260003373ffffffffffffffffffffffffffffffffffffffff1673ffffffffffffffffffffffffffffffffffffffff16815260200190815260200160002060030154029050600034600260003373ffffffffffffffffffffffffffffffffffffffff1673ffffffffffffffffffffffffffffffffffffffff168152602001908152602001600020600201540290506000600260003373ffffffffffffffffffffffffffffffffffffffff1673ffffffffffffffffffffffffffffffffffffffff168152602001908152602001600020600301548202905082811115612427576040517f08c379a0000000000000000000000000000000000000000000000000000000008152600401808060200182810382526025815260200180613c096025913960400191505060405180910390fd5b600081340190508260056000878152602001908152602001600020600401600082825403925050819055508573ffffffffffffffffffffffffffffffffffffffff166108fc829081150290604051600060405180830381858888f19350505050158015612498573d6000803e3d6000fd5b50505050505050565b60076020528060005260406000206000915090508060000160009054906101000a900460ff1690806001018054600181600116156101000203166002900480601f0160208091040260200160405190810160405280929190818152602001828054600181600116156101000203166002900480156125605780601f1061253557610100808354040283529160200191612560565b820191906000526020600020905b81548152906001019060200180831161254357829003601f168201915b5050505050905082565b6000600560008381526020019081526020016000206004015490506000600560008481526020019081526020016000206004018190555060006005600084815260200190815260200160002060000160006101000a81548160ff02191690831515021790555060006005600084815260200190815260200160002060020160009054906101000a900473ffffffffffffffffffffffffffffffffffffffff1690506000600460008373ffffffffffffffffffffffffffffffffffffffff1673ffffffffffffffffffffffffffffffffffffffff16815260200190815260200160002060010160006101000a81548160ff0219169083151502179055506000801b600460008373ffffffffffffffffffffffffffffffffffffffff1673ffffffffffffffffffffffffffffffffffffffff1681526020019081526020016000206002018190555081600960008282540192505081905550505050565b60095481565b600860049054906101000a900463ffffffff1681565b600860009054906101000a900463ffffffff1681565b60056020528060005260406000206000915090508060000160009054906101000a900460ff16908060000160019054906101000a900473ffffffffffffffffffffffffffffffffffffffff16908060010154908060020160009054906101000a900473ffffffffffffffffffffffffffffffffffffffff16908060030154908060040154905086565b600034116127f6576040517f08c379a00000000000000000000000000000000000000000000000000000000081526004018080602001828103825260178152602001807f546865207072656d69756d2063616e6e6f74206265203000000000000000000081525060200191505060405180910390fd5b600460008273ffffffffffffffffffffffffffffffffffffffff1673ffffffffffffffffffffffffffffffffffffffff16815260200190815260200160002060010160009054906101000a900460ff16156128b9576040517f08c379a00000000000000000000000000000000000000000000000000000000081526004018080602001828103825260208152602001807f546869732064657669636520616c72656164792068617320616e206f7264657281525060200191505060405180910390fd5b600160028111156128c657fe5b600460008373ffffffffffffffffffffffffffffffffffffffff1673ffffffffffffffffffffffffffffffffffffffff16815260200190815260200160002060010160019054906101000a900460ff16600281111561292157fe5b14612994576040517f08c379a000000000000000000000000000000000000000000000000000000000815260040180806020018281038252601f8152602001807f5468697320646576696365206973206e6f7420617070726f766564207965740081525060200191505060405180910390fd5b600260003373ffffffffffffffffffffffffffffffffffffffff1673ffffffffffffffffffffffffffffffffffffffff16815260200190815260200160002060000160009054906101000a900460ff166129f2576129f13361332c565b5b60006129ff8585856134c9565b9050600033828434604051602001808573ffffffffffffffffffffffffffffffffffffffff1673ffffffffffffffffffffffffffffffffffffffff1660601b81526014018481526020018373ffffffffffffffffffffffffffffffffffffffff1673ffffffffffffffffffffffffffffffffffffffff1660601b8152601401828152602001945050505050604051602081830303815290604052805190602001209050600034600260003373ffffffffffffffffffffffffffffffffffffffff1673ffffffffffffffffffffffffffffffffffffffff16815260200190815260200160002060020154029050600954811115612b46576040517f08c379a000000000000000000000000000000000000000000000000000000000815260040180806020018281038252603c815260200180613ba9603c913960400191505060405180910390fd5b6040518060c001604052806001151581526020013373ffffffffffffffffffffffffffffffffffffffff1681526020018481526020018573ffffffffffffffffffffffffffffffffffffffff168152602001348152602001828152506005600084815260200190815260200160002060008201518160000160006101000a81548160ff02191690831515021790555060208201518160000160016101000a81548173ffffffffffffffffffffffffffffffffffffffff021916908373ffffffffffffffffffffffffffffffffffffffff1602179055506040820151816001015560608201518160020160006101000a81548173ffffffffffffffffffffffffffffffffffffffff021916908373ffffffffffffffffffffffffffffffffffffffff1602179055506080820151816003015560a08201518160040155905050806009600082825403925050819055503460096000828254019250508190555081600460008673ffffffffffffffffffffffffffffffffffffffff1673ffffffffffffffffffffffffffffffffffffffff168152602001908152602001600020600201819055506001600460008673ffffffffffffffffffffffffffffffffffffffff1673ffffffffffffffffffffffffffffffffffffffff16815260200190815260200160002060010160006101000a81548160ff021916908315150217905550600260003373ffffffffffffffffffffffffffffffffffffffff1673ffffffffffffffffffffffffffffffffffffffff16815260200190815260200160002060060182908060018154018082558091505090600182039060005260206000200160009091929091909150555050505050505050565b6004602052806000526040600020600091509050806000018054600181600116156101000203166002900480601f016020809104026020016040519081016040528092919081815260200182805460018160011615610100020316600290048015612e675780601f10612e3c57610100808354040283529160200191612e67565b820191906000526020600020905b815481529060010190602001808311612e4a57829003601f168201915b5050505050908060010160009054906101000a900460ff16908060010160019054906101000a900460ff16908060020154905084565b6000809054906101000a900473ffffffffffffffffffffffffffffffffffffffff1673ffffffffffffffffffffffffffffffffffffffff163373ffffffffffffffffffffffffffffffffffffffff1614612f42576040517f08c379a0000000000000000000000000000000000000000000000000000000008152600401808060200182810382526029815260200180613d0f6029913960400191505060405180910390fd5b60006002811115612f4f57fe5b600460008473ffffffffffffffffffffffffffffffffffffffff1673ffffffffffffffffffffffffffffffffffffffff16815260200190815260200160002060010160019054906101000a900460ff166002811115612faa57fe5b14613000576040517f08c379a0000000000000000000000000000000000000000000000000000000008152600401808060200182810382526027815260200180613c2e6027913960400191505060405180910390fd5b80600460008473ffffffffffffffffffffffffffffffffffffffff1673ffffffffffffffffffffffffffffffffffffffff1681526020019081526020016000206000019080519060200190613056929190613a8f565b506000809054906101000a900473ffffffffffffffffffffffffffffffffffffffff1673ffffffffffffffffffffffffffffffffffffffff163373ffffffffffffffffffffffffffffffffffffffff161415613115576001600460008473ffffffffffffffffffffffffffffffffffffffff1673ffffffffffffffffffffffffffffffffffffffff16815260200190815260200160002060010160016101000a81548160ff0219169083600281111561310b57fe5b021790555061317a565b6000600460008473ffffffffffffffffffffffffffffffffffffffff1673ffffffffffffffffffffffffffffffffffffffff16815260200190815260200160002060010160016101000a81548160ff0219169083600281111561317457fe5b02179055505b5050565b6000809054906101000a900473ffffffffffffffffffffffffffffffffffffffff1681565b600080601b90505b601d8160ff1610156132a45760018582868660405160008152602001604052604051808581526020018460ff1660ff1681526020018381526020018281526020019450505050506020604051602081039080840390855afa158015613214573d6000803e3d6000fd5b5050506020604051035191506001600281111561322d57fe5b600460008473ffffffffffffffffffffffffffffffffffffffff1673ffffffffffffffffffffffffffffffffffffffff16815260200190815260200160002060010160019054906101000a900460ff16600281111561328857fe5b141561329757819150506132aa565b80806001019150506131ab565b50600090505b9392505050565b600260008373ffffffffffffffffffffffffffffffffffffffff1673ffffffffffffffffffffffffffffffffffffffff16815260200190815260200160002060050181908060018154018082558091505090600182039060005260206000200160009091929091909150555061332882600061371a565b5050565b600260008273ffffffffffffffffffffffffffffffffffffffff1673ffffffffffffffffffffffffffffffffffffffff16815260200190815260200160002060000160009054906101000a900460ff16156133d2576040517f08c379a0000000000000000000000000000000000000000000000000000000008152600401808060200182810382526026815260200180613d386026913960400191505060405180910390fd5b6001600260008373ffffffffffffffffffffffffffffffffffffffff1673ffffffffffffffffffffffffffffffffffffffff16815260200190815260200160002060000160006101000a81548160ff0219169083151502179055506001600260008373ffffffffffffffffffffffffffffffffffffffff1673ffffffffffffffffffffffffffffffffffffffff168152602001908152602001600020600101819055506001600260008373ffffffffffffffffffffffffffffffffffffffff1673ffffffffffffffffffffffffffffffffffffffff168152602001908152602001600020600301819055506134c681613916565b50565b60008383836040516020018084805190602001908083835b6020831061350457805182526020820191506020810190506020830392506134e1565b6001836020036101000a03801982511681845116808217855250505050505090500183805190602001908083835b602083106135555780518252602082019150602081019050602083039250613532565b6001836020036101000a03801982511681845116808217855250505050505090500182805190602001908083835b602083106135a65780518252602082019150602081019050602083039250613583565b6001836020036101000a03801982511681845116808217855250505050505090500193505050506040516020818303038152906040528051906020012090506003600082815260200190815260200160002060000160009054906101000a900460ff161561365f576040517f08c379a0000000000000000000000000000000000000000000000000000000008152600401808060200182810382526024815260200180613be56024913960400191505060405180910390fd5b6040518060800160405280600115158152602001858152602001848152602001838152506003600083815260200190815260200160002060008201518160000160006101000a81548160ff02191690831515021790555060208201518160010190805190602001906136d29291906139bc565b5060408201518160020190805190602001906136ef9291906139bc565b50606082015181600301908051906020019061370c9291906139bc565b509050508090509392505050565b6000600260008473ffffffffffffffffffffffffffffffffffffffff1673ffffffffffffffffffffffffffffffffffffffff16815260200190815260200160002060010154905081156137f8576001600260008573ffffffffffffffffffffffffffffffffffffffff1673ffffffffffffffffffffffffffffffffffffffff1681526020019081526020016000206001015401600260008573ffffffffffffffffffffffffffffffffffffffff1673ffffffffffffffffffffffffffffffffffffffff168152602001908152602001600020600101819055506138d1565b6001600260008573ffffffffffffffffffffffffffffffffffffffff1673ffffffffffffffffffffffffffffffffffffffff1681526020019081526020016000206001015411156138d0576001600260008573ffffffffffffffffffffffffffffffffffffffff1673ffffffffffffffffffffffffffffffffffffffff1681526020019081526020016000206001015403600260008573ffffffffffffffffffffffffffffffffffffffff1673ffffffffffffffffffffffffffffffffffffffff168152602001908152602001600020600101819055505b5b600260008473ffffffffffffffffffffffffffffffffffffffff1673ffffffffffffffffffffffffffffffffffffffff16815260200190815260200160002050505050565b600260008273ffffffffffffffffffffffffffffffffffffffff1673ffffffffffffffffffffffffffffffffffffffff16815260200190815260200160002060010154600860009054906101000a900463ffffffff1663ffffffff1602600260008373ffffffffffffffffffffffffffffffffffffffff1673ffffffffffffffffffffffffffffffffffffffff1681526020019081526020016000206002018190555050565b828054600181600116156101000203166002900490600052602060002090601f016020900481019282601f106139fd57805160ff1916838001178555613a2b565b82800160010185558215613a2b579182015b82811115613a2a578251825591602001919060010190613a0f565b5b509050613a389190613b0f565b5090565b8260038101928215613a7e579160200282015b82811115613a7d578251829080519060200190613a6d9291906139bc565b5091602001919060010190613a4f565b5b509050613a8b9190613b34565b5090565b828054600181600116156101000203166002900490600052602060002090601f016020900481019282601f10613ad057805160ff1916838001178555613afe565b82800160010185558215613afe579182015b82811115613afd578251825591602001919060010190613ae2565b5b509050613b0b9190613b0f565b5090565b613b3191905b80821115613b2d576000816000905550600101613b15565b5090565b90565b613b5d91905b80821115613b595760008181613b509190613b60565b50600101613b3a565b5090565b90565b50805460018160011615610100020316600290046000825580601f10613b865750613ba5565b601f016020900490600052602060002090810190613ba49190613b0f565b5b5056fe54686520636f6e74726163742062616c616e636520697320696e737566696369656e7420746f2067756172616e746565207468697320706f6c69637954686973206361722068617320616c7265616479206265656e207265676973746572656454686520636c61696d61626c6520616d6f756e742065786565647320746865206c696d697454686973206465766963652068617320616c7265616479206265656e20726567697374657265644f6e6c79206f776e6572206f662074686520706f6c6963792063616e20636c61696d207468652066756e647354686520726570616972206665652073686f756c64206265206d6f7265207468616e203054686520676976656e20706172746e6572206164647265737320646f65736e277420657869737420616d6f6e67207265676973746572656420706172746e65727354686973206d657373616765206469646e277420706173732074686520766572696669636174696f6e4f6e6c792061646d696e6973747261746f722063616e2063616c6c20746869732066756e6374696f6e546865206163636f756e742068617320616c7265616479206265656e206163746976617465645468697320706172746e65722068617320616c7265616479206265656e2072656769737465726564a265627a7a7231582088f860709aafcb77a63c4de1e2438d0b9e310c1b833049ad6098e7149d06068c64736f6c63430005100032",
  "source": "// SPDX-License-Identifier: MIT\npragma solidity ^0.5.13;\n\n/// control speed limit and gps point of speeding\n/// distance for bonus\n\ncontract DriveSlowSafe {\n    /// WHO\n    struct Holder {\n        bool isActive;\n        uint256 rating;\n        uint256 multiplier;\n        uint256 penaltyMultiplier;\n        uint accumulatedKM;\n        bytes32[] penalties;\n        bytes32[] policies;\n    }\n\n    /// WHAT\n    struct Car {\n        bool registered;\n        string brand;\n        string model;\n        string year;\n        // string vin;\n    }\n\n    /// WITH\n    struct Device {\n        //Intrinsic properties\n        string imei;\n        bool hasOrder;\n        // uint32 freq;\n        Status status;\n        bytes32 policy;\n    }\n\n    /// ON WHAT CONDITIONS\n    struct Policy {\n        bool isActive;\n        address policyHolder;\n        bytes32 car;\n        address device;\n        // string startDate;\n        // string endDate;\n        uint256 premium;\n        uint256 locked;\n    }\n\n    /// Will be used to store meaningful data data points\n    struct DataPoint {\n        string[3] accelerometer;\n        string latitude;\n        string longitude;\n        string random;\n        string timestamp;\n    }\n\n    struct Partner {\n        bool registered;\n        string name;\n    }\n\n    enum Status {\n        waitingApproval,\n        whitelisted,\n        blocked\n    }\n\n    /// STORAGE MAPPINGS\n    address payable public administrator;\n    bytes32[] public deviceIDs;\n    mapping (address => Holder) public holders;\n    mapping (bytes32 => Car) public cars;\n    mapping (address => Device) public devices;\n    mapping (bytes32 => Policy) public policies;\n    mapping (bytes32 => DataPoint) public dataPoints;\n    mapping (address => Partner) public partners;\n\n    uint32 public alpha = 10;  // to calculate multipliers of users\n    uint32 public speed = 50;  // maximal allowed speed\n    uint256 public balance;\n\n    constructor() public payable {\n        require(msg.value > 0, \"The contract need to be funded\");\n        administrator = msg.sender;\n        balance = msg.value;\n    }\n\n    modifier onlyAdministrator() {\n        require(msg.sender == administrator, \"Only administrator can call this function\");\n        _;\n    }\n\n    /// Admin functions\n    function approveDevice(address _walletAddress, string memory _imei) public onlyAdministrator {\n        require(devices[_walletAddress].status == Status.waitingApproval, \"This device has already been registered\");\n\n        devices[_walletAddress].imei = _imei;\n\n        if (msg.sender == administrator) {\n            devices[_walletAddress].status = Status.whitelisted;\n        } else {\n            devices[_walletAddress].status = Status.waitingApproval;\n        }\n    }\n\n    function registerPartner(address _partner, string memory name) public onlyAdministrator {\n        require(!partners[_partner].registered, \"This partner has already been registered\");\n\n        partners[_partner] = Partner(true, name);\n    }\n\n    function kill() public onlyAdministrator {\n        selfdestruct(administrator);\n    }\n\n    /// Policy holder functions\n    function signPolicy(string memory _brand, string memory _model, string memory _year, address _device) public payable {\n        require(msg.value > 0, \"The premium cannot be 0\");\n        require(!devices[_device].hasOrder, \"This device already has an order\");\n        require(devices[_device].status == Status.whitelisted, \"This device is not approved yet\");\n\n        // activate policy holder account\n        if (!holders[msg.sender].isActive) {\n            activateAccount(msg.sender);\n        }\n\n        bytes32 _car = registerCar(_brand, _model, _year);\n        bytes32 hash = keccak256(abi.encodePacked(msg.sender, _car, _device, msg.value));\n\n        // Record policy\n        uint256 toLock = holders[msg.sender].multiplier * msg.value;\n        require(toLock <= balance, \"The contract balance is insuficient to guarantee this policy\");\n        policies[hash] = Policy(true, msg.sender, _car, _device, msg.value, toLock);\n\n        // add premium and supstract locked funds to the contract balance\n        balance -= toLock;\n        balance += msg.value;\n\n        // Record change in device\n        devices[_device].policy = hash;\n        devices[_device].hasOrder = true;\n\n        holders[msg.sender].policies.push(hash);\n    }\n\n    function payRepair(address payable _partner, bytes32 _policy) public payable {\n        require(msg.value > 0, \"The repair fee should be more than 0\");\n        require(partners[_partner].registered, \"The given partner address doesn't exist among registered partners\");\n        require(policies[_policy].policyHolder == msg.sender, \"Only owner of the policy can claim the funds\");\n\n        uint256 claimable = holders[msg.sender].penaltyMultiplier * policies[_policy].locked;\n        uint256 cleanGrant = holders[msg.sender].multiplier * msg.value;  // the grant without applied penalties\n        uint256 grant = cleanGrant * holders[msg.sender].penaltyMultiplier;\n        require(grant <= claimable, \"The claimable amount exeeds the limit\");\n\n        // the funds that the contract should transfer to the partner\n        uint256 toPay = msg.value + grant;\n        policies[_policy].locked -= cleanGrant;\n\n        _partner.transfer(toPay);\n    }\n\n    /// backend functions\n    function receiveMessage(\n        string memory _accel1, string memory _accel2, string memory _accel3, string memory _latitude, string memory _longitude,\n        string memory _random, string memory _timestamp, bytes32 _r, bytes32 _s\n    ) public {\n        string memory _message = string(abi.encodePacked(\n                \"{\\\"message\\\":{\\\"accelerometer\\\":[\", _accel1 ,\",\", _accel2 ,\",\", _accel3, \"],\\\"latitude\\\":\",\n                _latitude, \",\\\"longitude\\\":\", _longitude, \",\\\"timestamp\\\":\\\"\", _timestamp, \"\\\",\\\"random\\\":\\\"\", _random, \"\\\"}}\"\n            ));\n\n        bytes32 hash = keccak256(bytes(_message));\n        address _deviceId = verifyMessage(hash, _r, _s);\n\n        require(!(_deviceId == address(0)), \"This message didn't pass the verification\");\n        require(devices[_deviceId].hasOrder, \"This device has no order yet\");\n\n        dataPoints[hash] = DataPoint([_accel1, _accel2, _accel3], _latitude, _longitude, _random, _timestamp);\n        bytes32 policy = devices[_deviceId].policy;\n        address holder = policies[policy].policyHolder;\n        applyPenalty(holder, hash);\n    }\n\n    function cancelPolicy(bytes32 _policy) public {\n        // Todo: set policy deactivation\n        // require time.now > policy.endDate\n        uint256 unlocking = policies[_policy].locked;\n        policies[_policy].locked = 0;\n        policies[_policy].isActive = false;\n        address device = policies[_policy].device;\n        devices[device].hasOrder = false;\n        devices[device].policy = bytes32(0);\n        balance += unlocking;\n\n    }\n\n    /// utility functions\n    function activateAccount(address _holderAddress) internal {\n        require(!holders[_holderAddress].isActive, \"The account has already been activated\");\n        holders[_holderAddress].isActive = true;\n        holders[_holderAddress].rating = 1;\n        holders[_holderAddress].penaltyMultiplier = 1;\n        updateMultiplier(_holderAddress);\n    }\n\n    function updateMultiplier(address _holderAddress) internal {\n        holders[_holderAddress].multiplier = alpha * holders[_holderAddress].rating;\n    }\n\n    function updateRating(address _holderAddress, bool _positive) internal {\n        uint256 prevState = holders[_holderAddress].rating;\n\n        if (_positive) {\n            holders[_holderAddress].rating = holders[_holderAddress].rating + 1;\n        } else {\n            if (holders[_holderAddress].rating > 1) {\n                holders[_holderAddress].rating = holders[_holderAddress].rating - 1;\n            }\n        }\n\n        if (prevState != holders[_holderAddress].rating) {\n            updateMultiplier;\n        }\n    }\n\n    function registerCar(string memory _brand, string memory _model, string memory _year) internal returns(bytes32 car_hash) {\n        car_hash = keccak256(abi.encodePacked(_brand, _model, _year));\n        require(!cars[car_hash].registered, \"This car has already been registered\");\n\n        cars[car_hash] = Car(true, _brand, _model, _year);\n        return car_hash;\n    }\n\n    function verifyMessage(bytes32 _hash, bytes32 _r, bytes32 _s) internal view returns(address _deviceId) {\n        for (uint8 v = 27; v < 29; v++) {\n            _deviceId = ecrecover(_hash, v, _r, _s);\n\n            if (devices[_deviceId].status == Status.whitelisted) {\n                return(_deviceId);\n            }\n        }\n        return address(0);\n    }\n\n    function applyPenalty(address _holder, bytes32 _dataPoint) internal {\n        holders[_holder].penalties.push(_dataPoint);\n        updateRating(_holder, false);\n    }\n\n    function showMyPenalties() public view returns(bytes32[] memory){\n        return holders[msg.sender].penalties;\n    }\n}",
  "sourcePath": "/Users/nikitushka/ZhouDev/blockchain/drive-slow-safe-sc/contracts/driveSlowSafe.sol",
  "compiler": {
    "name": "solc",
    "version": "0.5.16+commit.9c3226ce.Emscripten.clang"
  },
  "schemaVersion": "3.4.1",
  "updatedAt": "2021-07-06T11:05:42.604Z",
  "devdoc": {
    "methods": {}
  },
  "userdoc": {
    "methods": {
      "approveDevice(address,string)": {
        "notice": "Admin functions"
      },
      "receiveMessage(string,string,string,string,string,string,string,bytes32,bytes32)": {
        "notice": "backend functions"
      },
      "signPolicy(string,string,string,address)": {
        "notice": "Policy holder functions"
      }
    },
    "notice": "control speed limit and gps point of speeding distance for bonus"
  }
}