{
  "contractName": "DriveSlowSafe",
  "abi": [
    {
      "inputs": [],
      "payable": true,
      "stateMutability": "payable",
      "type": "constructor"
    },
    {
      "constant": true,
      "inputs": [],
      "name": "administrator",
      "outputs": [
        {
          "internalType": "address payable",
          "name": "",
          "type": "address"
        }
      ],
      "payable": false,
      "stateMutability": "view",
      "type": "function"
    },
    {
      "constant": true,
      "inputs": [],
      "name": "balance",
      "outputs": [
        {
          "internalType": "uint256",
          "name": "",
          "type": "uint256"
        }
      ],
      "payable": false,
      "stateMutability": "view",
      "type": "function"
    },
    {
      "constant": true,
      "inputs": [
        {
          "internalType": "bytes32",
          "name": "",
          "type": "bytes32"
        }
      ],
      "name": "dataPoints",
      "outputs": [
        {
          "internalType": "string",
          "name": "latitude",
          "type": "string"
        },
        {
          "internalType": "string",
          "name": "longitude",
          "type": "string"
        },
        {
          "internalType": "string",
          "name": "random",
          "type": "string"
        },
        {
          "internalType": "string",
          "name": "timestamp",
          "type": "string"
        }
      ],
      "payable": false,
      "stateMutability": "view",
      "type": "function"
    },
    {
      "constant": true,
      "inputs": [
        {
          "internalType": "address",
          "name": "",
          "type": "address"
        }
      ],
      "name": "devices",
      "outputs": [
        {
          "internalType": "string",
          "name": "imei",
          "type": "string"
        },
        {
          "internalType": "bool",
          "name": "hasOrder",
          "type": "bool"
        },
        {
          "internalType": "enum DriveSlowSafe.Status",
          "name": "status",
          "type": "uint8"
        },
        {
          "internalType": "bytes32",
          "name": "policy",
          "type": "bytes32"
        }
      ],
      "payable": false,
      "stateMutability": "view",
      "type": "function"
    },
    {
      "constant": true,
      "inputs": [
        {
          "internalType": "address",
          "name": "",
          "type": "address"
        }
      ],
      "name": "holders",
      "outputs": [
        {
          "internalType": "bool",
          "name": "isActive",
          "type": "bool"
        },
        {
          "internalType": "uint256",
          "name": "rating",
          "type": "uint256"
        },
        {
          "internalType": "uint256",
          "name": "multiplier",
          "type": "uint256"
        },
        {
          "internalType": "uint256",
          "name": "penaltyMultiplier",
          "type": "uint256"
        }
      ],
      "payable": false,
      "stateMutability": "view",
      "type": "function"
    },
    {
      "constant": true,
      "inputs": [
        {
          "internalType": "address",
          "name": "",
          "type": "address"
        }
      ],
      "name": "partners",
      "outputs": [
        {
          "internalType": "bool",
          "name": "registered",
          "type": "bool"
        },
        {
          "internalType": "string",
          "name": "name",
          "type": "string"
        }
      ],
      "payable": false,
      "stateMutability": "view",
      "type": "function"
    },
    {
      "constant": true,
      "inputs": [
        {
          "internalType": "bytes32",
          "name": "",
          "type": "bytes32"
        }
      ],
      "name": "policies",
      "outputs": [
        {
          "internalType": "bool",
          "name": "isActive",
          "type": "bool"
        },
        {
          "internalType": "address",
          "name": "policyHolder",
          "type": "address"
        },
        {
          "internalType": "bytes32",
          "name": "vehicle",
          "type": "bytes32"
        },
        {
          "internalType": "address",
          "name": "device",
          "type": "address"
        },
        {
          "internalType": "uint256",
          "name": "premium",
          "type": "uint256"
        },
        {
          "internalType": "uint256",
          "name": "locked",
          "type": "uint256"
        },
        {
          "internalType": "uint256",
          "name": "fundsUsed",
          "type": "uint256"
        }
      ],
      "payable": false,
      "stateMutability": "view",
      "type": "function"
    },
    {
      "constant": true,
      "inputs": [
        {
          "internalType": "bytes32",
          "name": "",
          "type": "bytes32"
        }
      ],
      "name": "vehicles",
      "outputs": [
        {
          "internalType": "bool",
          "name": "registered",
          "type": "bool"
        },
        {
          "internalType": "string",
          "name": "brand",
          "type": "string"
        },
        {
          "internalType": "string",
          "name": "model",
          "type": "string"
        },
        {
          "internalType": "string",
          "name": "year",
          "type": "string"
        }
      ],
      "payable": false,
      "stateMutability": "view",
      "type": "function"
    },
    {
      "constant": false,
      "inputs": [
        {
          "internalType": "address",
          "name": "_walletAddress",
          "type": "address"
        },
        {
          "internalType": "string",
          "name": "_imei",
          "type": "string"
        }
      ],
      "name": "approveDevice",
      "outputs": [],
      "payable": false,
      "stateMutability": "nonpayable",
      "type": "function"
    },
    {
      "constant": false,
      "inputs": [
        {
          "internalType": "address",
          "name": "_partner",
          "type": "address"
        },
        {
          "internalType": "string",
          "name": "name",
          "type": "string"
        }
      ],
      "name": "registerPartner",
      "outputs": [],
      "payable": false,
      "stateMutability": "nonpayable",
      "type": "function"
    },
    {
      "constant": false,
      "inputs": [],
      "name": "kill",
      "outputs": [],
      "payable": false,
      "stateMutability": "nonpayable",
      "type": "function"
    },
    {
      "constant": false,
      "inputs": [
        {
          "internalType": "string",
          "name": "_brand",
          "type": "string"
        },
        {
          "internalType": "string",
          "name": "_model",
          "type": "string"
        },
        {
          "internalType": "string",
          "name": "_year",
          "type": "string"
        },
        {
          "internalType": "address",
          "name": "_device",
          "type": "address"
        }
      ],
      "name": "signPolicy",
      "outputs": [],
      "payable": true,
      "stateMutability": "payable",
      "type": "function"
    },
    {
      "constant": false,
      "inputs": [
        {
          "internalType": "address payable",
          "name": "_partner",
          "type": "address"
        },
        {
          "internalType": "bytes32",
          "name": "_policy",
          "type": "bytes32"
        }
      ],
      "name": "payRepair",
      "outputs": [],
      "payable": true,
      "stateMutability": "payable",
      "type": "function"
    },
    {
      "constant": false,
      "inputs": [
        {
          "internalType": "string",
          "name": "_accel1",
          "type": "string"
        },
        {
          "internalType": "string",
          "name": "_accel2",
          "type": "string"
        },
        {
          "internalType": "string",
          "name": "_accel3",
          "type": "string"
        },
        {
          "internalType": "string",
          "name": "_latitude",
          "type": "string"
        },
        {
          "internalType": "string",
          "name": "_longitude",
          "type": "string"
        },
        {
          "internalType": "string",
          "name": "_random",
          "type": "string"
        },
        {
          "internalType": "string",
          "name": "_timestamp",
          "type": "string"
        },
        {
          "internalType": "bytes32",
          "name": "_r",
          "type": "bytes32"
        },
        {
          "internalType": "bytes32",
          "name": "_s",
          "type": "bytes32"
        }
      ],
      "name": "receiveMessage",
      "outputs": [],
      "payable": false,
      "stateMutability": "nonpayable",
      "type": "function"
    },
    {
      "constant": false,
      "inputs": [
        {
          "internalType": "bytes32",
          "name": "_policy",
          "type": "bytes32"
        }
      ],
      "name": "cancelPolicy",
      "outputs": [],
      "payable": false,
      "stateMutability": "nonpayable",
      "type": "function"
    },
    {
      "constant": true,
      "inputs": [],
      "name": "showMyPenalties",
      "outputs": [
        {
          "internalType": "bytes32[]",
          "name": "",
          "type": "bytes32[]"
        }
      ],
      "payable": false,
      "stateMutability": "view",
      "type": "function"
    },
    {
      "constant": true,
      "inputs": [],
      "name": "showMyPolicies",
      "outputs": [
        {
          "internalType": "bytes32[]",
          "name": "",
          "type": "bytes32[]"
        }
      ],
      "payable": false,
      "stateMutability": "view",
      "type": "function"
    },
    {
      "constant": true,
      "inputs": [],
      "name": "getHoldersIds",
      "outputs": [
        {
          "internalType": "address[]",
          "name": "",
          "type": "address[]"
        }
      ],
      "payable": false,
      "stateMutability": "view",
      "type": "function"
    },
    {
      "constant": true,
      "inputs": [],
      "name": "getVehicleIds",
      "outputs": [
        {
          "internalType": "bytes32[]",
          "name": "",
          "type": "bytes32[]"
        }
      ],
      "payable": false,
      "stateMutability": "view",
      "type": "function"
    },
    {
      "constant": true,
      "inputs": [],
      "name": "getDeviceIds",
      "outputs": [
        {
          "internalType": "address[]",
          "name": "",
          "type": "address[]"
        }
      ],
      "payable": false,
      "stateMutability": "view",
      "type": "function"
    },
    {
      "constant": true,
      "inputs": [],
      "name": "getPolicyIds",
      "outputs": [
        {
          "internalType": "bytes32[]",
          "name": "",
          "type": "bytes32[]"
        }
      ],
      "payable": false,
      "stateMutability": "view",
      "type": "function"
    },
    {
      "constant": true,
      "inputs": [],
      "name": "getPartnerIds",
      "outputs": [
        {
          "internalType": "address[]",
          "name": "",
          "type": "address[]"
        }
      ],
      "payable": false,
      "stateMutability": "view",
      "type": "function"
    }
  ],
  "bytecode": "0x60806040526002600c60006101000a81548163ffffffff021916908363ffffffff1602179055506103e8600c60046101000a81548163ffffffff021916908363ffffffff1602179055506032600c60086101000a81548163ffffffff021916908363ffffffff160217905550600034116100e1576040517f08c379a000000000000000000000000000000000000000000000000000000000815260040180806020018281038252601e8152602001807f54686520636f6e7472616374206e65656420746f2062652066756e646564000081525060200191505060405180910390fd5b336000806101000a81548173ffffffffffffffffffffffffffffffffffffffff021916908373ffffffffffffffffffffffffffffffffffffffff16021790555034600d819055506148f0806101376000396000f3fe6080604052600436106101355760003560e01c80637f6bb324116100ab578063cff894831161006f578063cff8948314610ebe578063ddbfd8ef14610f2a578063dfcce8dc14610fff578063e7b4cac614611208578063e8f31a5f146112f9578063f53d0a8e146113e157610135565b80637f6bb32414610cc957806395c3365214610d17578063a86146d014610dec578063ad16185f14610e27578063b69ef8a814610e9357610135565b806337da1eaa116100fd57806337da1eaa146104f457806341c0e1b514610560578063475436a21461057757806350c1e3d51461070e5780635607541e146107f6578063705ed9111461086257610135565b806306f1b2ee1461013a57806318a5bbdc146101a65780632993f1ed1461022457806329e6c4fd146102905780633185c631146102fc575b600080fd5b34801561014657600080fd5b5061014f611438565b6040518080602001828103825283818151815260200191508051906020019060200280838360005b83811015610192578082015181840152602081019050610177565b505050509050019250505060405180910390f35b3480156101b257600080fd5b506101f5600480360360208110156101c957600080fd5b81019080803573ffffffffffffffffffffffffffffffffffffffff169060200190929190505050611535565b604051808515151515815260200184815260200183815260200182815260200194505050505060405180910390f35b34801561023057600080fd5b50610239611572565b6040518080602001828103825283818151815260200191508051906020019060200280838360005b8381101561027c578082015181840152602081019050610261565b505050509050019250505060405180910390f35b34801561029c57600080fd5b506102a561160a565b6040518080602001828103825283818151815260200191508051906020019060200280838360005b838110156102e85780820151818401526020810190506102cd565b505050509050019250505060405180910390f35b34801561030857600080fd5b506103356004803603602081101561031f57600080fd5b81019080803590602001909291905050506116a2565b6040518080602001806020018060200180602001858103855289818151815260200191508051906020019080838360005b83811015610381578082015181840152602081019050610366565b50505050905090810190601f1680156103ae5780820380516001836020036101000a031916815260200191505b50858103845288818151815260200191508051906020019080838360005b838110156103e75780820151818401526020810190506103cc565b50505050905090810190601f1680156104145780820380516001836020036101000a031916815260200191505b50858103835287818151815260200191508051906020019080838360005b8381101561044d578082015181840152602081019050610432565b50505050905090810190601f16801561047a5780820380516001836020036101000a031916815260200191505b50858103825286818151815260200191508051906020019080838360005b838110156104b3578082015181840152602081019050610498565b50505050905090810190601f1680156104e05780820380516001836020036101000a031916815260200191505b509850505050505050505060405180910390f35b34801561050057600080fd5b50610509611932565b6040518080602001828103825283818151815260200191508051906020019060200280838360005b8381101561054c578082015181840152602081019050610531565b505050509050019250505060405180910390f35b34801561056c57600080fd5b50610575611a65565b005b34801561058357600080fd5b506105b06004803603602081101561059a57600080fd5b8101908080359060200190929190505050611b44565b6040518085151515158152602001806020018060200180602001848103845287818151815260200191508051906020019080838360005b838110156106025780820151818401526020810190506105e7565b50505050905090810190601f16801561062f5780820380516001836020036101000a031916815260200191505b50848103835286818151815260200191508051906020019080838360005b8381101561066857808201518184015260208101905061064d565b50505050905090810190601f1680156106955780820380516001836020036101000a031916815260200191505b50848103825285818151815260200191508051906020019080838360005b838110156106ce5780820151818401526020810190506106b3565b50505050905090810190601f1680156106fb5780820380516001836020036101000a031916815260200191505b5097505050505050505060405180910390f35b34801561071a57600080fd5b506107f46004803603604081101561073157600080fd5b81019080803573ffffffffffffffffffffffffffffffffffffffff1690602001909291908035906020019064010000000081111561076e57600080fd5b82018360208201111561078057600080fd5b803590602001918460018302840111640100000000831117156107a257600080fd5b91908080601f016020809104026020016040519081016040528093929190818152602001838380828437600081840152601f19601f820116905080830192505050505050509192919290505050611d49565b005b34801561080257600080fd5b5061080b611f95565b6040518080602001828103825283818151815260200191508051906020019060200280838360005b8381101561084e578082015181840152602081019050610833565b505050509050019250505060405180910390f35b34801561086e57600080fd5b50610cc7600480360361012081101561088657600080fd5b81019080803590602001906401000000008111156108a357600080fd5b8201836020820111156108b557600080fd5b803590602001918460018302840111640100000000831117156108d757600080fd5b91908080601f016020809104026020016040519081016040528093929190818152602001838380828437600081840152601f19601f8201169050808301925050505050505091929192908035906020019064010000000081111561093a57600080fd5b82018360208201111561094c57600080fd5b8035906020019184600183028401116401000000008311171561096e57600080fd5b91908080601f016020809104026020016040519081016040528093929190818152602001838380828437600081840152601f19601f820116905080830192505050505050509192919290803590602001906401000000008111156109d157600080fd5b8201836020820111156109e357600080fd5b80359060200191846001830284011164010000000083111715610a0557600080fd5b91908080601f016020809104026020016040519081016040528093929190818152602001838380828437600081840152601f19601f82011690508083019250505050505050919291929080359060200190640100000000811115610a6857600080fd5b820183602082011115610a7a57600080fd5b80359060200191846001830284011164010000000083111715610a9c57600080fd5b91908080601f016020809104026020016040519081016040528093929190818152602001838380828437600081840152601f19601f82011690508083019250505050505050919291929080359060200190640100000000811115610aff57600080fd5b820183602082011115610b1157600080fd5b80359060200191846001830284011164010000000083111715610b3357600080fd5b91908080601f016020809104026020016040519081016040528093929190818152602001838380828437600081840152601f19601f82011690508083019250505050505050919291929080359060200190640100000000811115610b9657600080fd5b820183602082011115610ba857600080fd5b80359060200191846001830284011164010000000083111715610bca57600080fd5b91908080601f016020809104026020016040519081016040528093929190818152602001838380828437600081840152601f19601f82011690508083019250505050505050919291929080359060200190640100000000811115610c2d57600080fd5b820183602082011115610c3f57600080fd5b80359060200191846001830284011164010000000083111715610c6157600080fd5b91908080601f016020809104026020016040519081016040528093929190818152602001838380828437600081840152601f19601f82011690508083019250505050505050919291929080359060200190929190803590602001909291905050506120c8565b005b610d1560048036036040811015610cdf57600080fd5b81019080803573ffffffffffffffffffffffffffffffffffffffff1690602001909291908035906020019092919050505061286f565b005b348015610d2357600080fd5b50610d6660048036036020811015610d3a57600080fd5b81019080803573ffffffffffffffffffffffffffffffffffffffff169060200190929190505050612c51565b604051808315151515815260200180602001828103825283818151815260200191508051906020019080838360005b83811015610db0578082015181840152602081019050610d95565b50505050905090810190601f168015610ddd5780820380516001836020036101000a031916815260200191505b50935050505060405180910390f35b348015610df857600080fd5b50610e2560048036036020811015610e0f57600080fd5b8101908080359060200190929190505050612d1a565b005b348015610e3357600080fd5b50610e3c612eb6565b6040518080602001828103825283818151815260200191508051906020019060200280838360005b83811015610e7f578082015181840152602081019050610e64565b505050509050019250505060405180910390f35b348015610e9f57600080fd5b50610ea8612fb3565b6040518082815260200191505060405180910390f35b348015610eca57600080fd5b50610ed3612fb9565b6040518080602001828103825283818151815260200191508051906020019060200280838360005b83811015610f16578082015181840152602081019050610efb565b505050509050019250505060405180910390f35b348015610f3657600080fd5b50610f6360048036036020811015610f4d57600080fd5b8101908080359060200190929190505050613047565b60405180881515151581526020018773ffffffffffffffffffffffffffffffffffffffff1673ffffffffffffffffffffffffffffffffffffffff1681526020018681526020018573ffffffffffffffffffffffffffffffffffffffff1673ffffffffffffffffffffffffffffffffffffffff16815260200184815260200183815260200182815260200197505050505050505060405180910390f35b6112066004803603608081101561101557600080fd5b810190808035906020019064010000000081111561103257600080fd5b82018360208201111561104457600080fd5b8035906020019184600183028401116401000000008311171561106657600080fd5b91908080601f016020809104026020016040519081016040528093929190818152602001838380828437600081840152601f19601f820116905080830192505050505050509192919290803590602001906401000000008111156110c957600080fd5b8201836020820111156110db57600080fd5b803590602001918460018302840111640100000000831117156110fd57600080fd5b91908080601f016020809104026020016040519081016040528093929190818152602001838380828437600081840152601f19601f8201169050808301925050505050505091929192908035906020019064010000000081111561116057600080fd5b82018360208201111561117257600080fd5b8035906020019184600183028401116401000000008311171561119457600080fd5b91908080601f016020809104026020016040519081016040528093929190818152602001838380828437600081840152601f19601f820116905080830192505050505050509192919290803573ffffffffffffffffffffffffffffffffffffffff1690602001909291905050506130d6565b005b34801561121457600080fd5b506112576004803603602081101561122b57600080fd5b81019080803573ffffffffffffffffffffffffffffffffffffffff16906020019092919050505061374e565b60405180806020018515151515815260200184600281111561127557fe5b60ff168152602001838152602001828103825286818151815260200191508051906020019080838360005b838110156112bb5780820151818401526020810190506112a0565b50505050905090810190601f1680156112e85780820380516001836020036101000a031916815260200191505b509550505050505060405180910390f35b34801561130557600080fd5b506113df6004803603604081101561131c57600080fd5b81019080803573ffffffffffffffffffffffffffffffffffffffff1690602001909291908035906020019064010000000081111561135957600080fd5b82018360208201111561136b57600080fd5b8035906020019184600183028401116401000000008311171561138d57600080fd5b91908080601f016020809104026020016040519081016040528093929190818152602001838380828437600081840152601f19601f820116905080830192505050505050509192919290505050613830565b005b3480156113ed57600080fd5b506113f6613b77565b604051808273ffffffffffffffffffffffffffffffffffffffff1673ffffffffffffffffffffffffffffffffffffffff16815260200191505060405180910390f35b60606000809054906101000a900473ffffffffffffffffffffffffffffffffffffffff1673ffffffffffffffffffffffffffffffffffffffff163373ffffffffffffffffffffffffffffffffffffffff16146114df576040517f08c379a00000000000000000000000000000000000000000000000000000000081526004018080602001828103825260298152602001806148456029913960400191505060405180910390fd5b600280548060200260200160405190810160405280929190818152602001828054801561152b57602002820191906000526020600020905b815481526020019060010190808311611517575b5050505050905090565b60066020528060005260406000206000915090508060000160009054906101000a900460ff16908060010154908060020154908060030154905084565b6060600660003373ffffffffffffffffffffffffffffffffffffffff1673ffffffffffffffffffffffffffffffffffffffff16815260200190815260200160002060040180548060200260200160405190810160405280929190818152602001828054801561160057602002820191906000526020600020905b8154815260200190600101908083116115ec575b5050505050905090565b6060600660003373ffffffffffffffffffffffffffffffffffffffff1673ffffffffffffffffffffffffffffffffffffffff16815260200190815260200160002060050180548060200260200160405190810160405280929190818152602001828054801561169857602002820191906000526020600020905b815481526020019060010190808311611684575b5050505050905090565b600a602052806000526040600020600091509050806003018054600181600116156101000203166002900480601f01602080910402602001604051908101604052809291908181526020018280546001816001161561010002031660029004801561174e5780601f106117235761010080835404028352916020019161174e565b820191906000526020600020905b81548152906001019060200180831161173157829003601f168201915b505050505090806004018054600181600116156101000203166002900480601f0160208091040260200160405190810160405280929190818152602001828054600181600116156101000203166002900480156117ec5780601f106117c1576101008083540402835291602001916117ec565b820191906000526020600020905b8154815290600101906020018083116117cf57829003601f168201915b505050505090806005018054600181600116156101000203166002900480601f01602080910402602001604051908101604052809291908181526020018280546001816001161561010002031660029004801561188a5780601f1061185f5761010080835404028352916020019161188a565b820191906000526020600020905b81548152906001019060200180831161186d57829003601f168201915b505050505090806006018054600181600116156101000203166002900480601f0160208091040260200160405190810160405280929190818152602001828054600181600116156101000203166002900480156119285780601f106118fd57610100808354040283529160200191611928565b820191906000526020600020905b81548152906001019060200180831161190b57829003601f168201915b5050505050905084565b60606000809054906101000a900473ffffffffffffffffffffffffffffffffffffffff1673ffffffffffffffffffffffffffffffffffffffff163373ffffffffffffffffffffffffffffffffffffffff16146119d9576040517f08c379a00000000000000000000000000000000000000000000000000000000081526004018080602001828103825260298152602001806148456029913960400191505060405180910390fd5b6001805480602002602001604051908101604052809291908181526020018280548015611a5b57602002820191906000526020600020905b8160009054906101000a900473ffffffffffffffffffffffffffffffffffffffff1673ffffffffffffffffffffffffffffffffffffffff1681526020019060010190808311611a11575b5050505050905090565b6000809054906101000a900473ffffffffffffffffffffffffffffffffffffffff1673ffffffffffffffffffffffffffffffffffffffff163373ffffffffffffffffffffffffffffffffffffffff1614611b0a576040517f08c379a00000000000000000000000000000000000000000000000000000000081526004018080602001828103825260298152602001806148456029913960400191505060405180910390fd5b6000809054906101000a900473ffffffffffffffffffffffffffffffffffffffff1673ffffffffffffffffffffffffffffffffffffffff16ff5b60076020528060005260406000206000915090508060000160009054906101000a900460ff1690806001018054600181600116156101000203166002900480601f016020809104026020016040519081016040528092919081815260200182805460018160011615610100020316600290048015611c035780601f10611bd857610100808354040283529160200191611c03565b820191906000526020600020905b815481529060010190602001808311611be657829003601f168201915b505050505090806002018054600181600116156101000203166002900480601f016020809104026020016040519081016040528092919081815260200182805460018160011615610100020316600290048015611ca15780601f10611c7657610100808354040283529160200191611ca1565b820191906000526020600020905b815481529060010190602001808311611c8457829003601f168201915b505050505090806003018054600181600116156101000203166002900480601f016020809104026020016040519081016040528092919081815260200182805460018160011615610100020316600290048015611d3f5780601f10611d1457610100808354040283529160200191611d3f565b820191906000526020600020905b815481529060010190602001808311611d2257829003601f168201915b5050505050905084565b6000809054906101000a900473ffffffffffffffffffffffffffffffffffffffff1673ffffffffffffffffffffffffffffffffffffffff163373ffffffffffffffffffffffffffffffffffffffff1614611dee576040517f08c379a00000000000000000000000000000000000000000000000000000000081526004018080602001828103825260298152602001806148456029913960400191505060405180910390fd5b600b60008373ffffffffffffffffffffffffffffffffffffffff1673ffffffffffffffffffffffffffffffffffffffff16815260200190815260200160002060000160009054906101000a900460ff1615611e94576040517f08c379a00000000000000000000000000000000000000000000000000000000081526004018080602001828103825260288152602001806148946028913960400191505060405180910390fd5b604051806040016040528060011515815260200182815250600b60008473ffffffffffffffffffffffffffffffffffffffff1673ffffffffffffffffffffffffffffffffffffffff16815260200190815260200160002060008201518160000160006101000a81548160ff0219169083151502179055506020820151816001019080519060200190611f279291906144f2565b5090505060058290806001815401808255809150509060018203906000526020600020016000909192909190916101000a81548173ffffffffffffffffffffffffffffffffffffffff021916908373ffffffffffffffffffffffffffffffffffffffff160217905550505050565b60606000809054906101000a900473ffffffffffffffffffffffffffffffffffffffff1673ffffffffffffffffffffffffffffffffffffffff163373ffffffffffffffffffffffffffffffffffffffff161461203c576040517f08c379a00000000000000000000000000000000000000000000000000000000081526004018080602001828103825260298152602001806148456029913960400191505060405180910390fd5b60038054806020026020016040519081016040528092919081815260200182805480156120be57602002820191906000526020600020905b8160009054906101000a900473ffffffffffffffffffffffffffffffffffffffff1673ffffffffffffffffffffffffffffffffffffffff1681526020019060010190808311612074575b5050505050905090565b60608989898989888a60405160200180807f7b226d657373616765223a7b22616363656c65726f6d65746572223a5b000000815250601d0188805190602001908083835b6020831061212f578051825260208201915060208101905060208303925061210c565b6001836020036101000a038019825116818451168082178552505050505050905001807f2c0000000000000000000000000000000000000000000000000000000000000081525060010187805190602001908083835b602083106121a85780518252602082019150602081019050602083039250612185565b6001836020036101000a038019825116818451168082178552505050505050905001807f2c0000000000000000000000000000000000000000000000000000000000000081525060010186805190602001908083835b6020831061222157805182526020820191506020810190506020830392506121fe565b6001836020036101000a038019825116818451168082178552505050505050905001807f5d2c226c61746974756465223a00000000000000000000000000000000000000815250600d0185805190602001908083835b6020831061229a5780518252602082019150602081019050602083039250612277565b6001836020036101000a038019825116818451168082178552505050505050905001807f2c226c6f6e676974756465223a00000000000000000000000000000000000000815250600d0184805190602001908083835b6020831061231357805182526020820191506020810190506020830392506122f0565b6001836020036101000a038019825116818451168082178552505050505050905001807f2c2274696d657374616d70223a22000000000000000000000000000000000000815250600e0183805190602001908083835b6020831061238c5780518252602082019150602081019050602083039250612369565b6001836020036101000a038019825116818451168082178552505050505050905001807f222c2272616e646f6d223a220000000000000000000000000000000000000000815250600c0182805190602001908083835b6020831061240557805182526020820191506020810190506020830392506123e2565b6001836020036101000a038019825116818451168082178552505050505050905001807f227d7d0000000000000000000000000000000000000000000000000000000000815250600301975050505050505050604051602081830303815290604052905060008180519060200120905060405160200180600001905060405160208183030381529060405280519060200120600a6000838152602001908152602001600020600501604051602001808280546001816001161561010002031660029004801561250b5780601f106124e957610100808354040283529182019161250b565b820191906000526020600020905b8154815290600101906020018083116124f7575b50509150506040516020818303038152906040528051906020012014612599576040517f08c379a000000000000000000000000000000000000000000000000000000000815260040180806020018281038252601d8152602001807f537563682064617461706f696e7420616c72656164792065786973747300000081525060200191505060405180910390fd5b60006125a6828686613b9c565b9050600073ffffffffffffffffffffffffffffffffffffffff168173ffffffffffffffffffffffffffffffffffffffff16141561262e576040517f08c379a000000000000000000000000000000000000000000000000000000000815260040180806020018281038252602981526020018061481c6029913960400191505060405180910390fd5b600860008273ffffffffffffffffffffffffffffffffffffffff1673ffffffffffffffffffffffffffffffffffffffff16815260200190815260200160002060010160009054906101000a900460ff166126f0576040517f08c379a000000000000000000000000000000000000000000000000000000000815260040180806020018281038252601c8152602001807f546869732064657669636520686173206e6f206f72646572207965740000000081525060200191505060405180910390fd5b6040518060a0016040528060405180606001604052808f81526020018e81526020018d81525081526020018a815260200189815260200188815260200187815250600a600084815260200190815260200160002060008201518160000190600361275b929190614572565b5060208201518160030190805190602001906127789291906144f2565b5060408201518160040190805190602001906127959291906144f2565b5060608201518160050190805190602001906127b29291906144f2565b5060808201518160060190805190602001906127cf9291906144f2565b509050506000600860008373ffffffffffffffffffffffffffffffffffffffff1673ffffffffffffffffffffffffffffffffffffffff16815260200190815260200160002060020154905060006009600083815260200190815260200160002060000160019054906101000a900473ffffffffffffffffffffffffffffffffffffffff16905061285f8185613caa565b5050505050505050505050505050565b600034116128c8576040517f08c379a00000000000000000000000000000000000000000000000000000000081526004018080602001828103825260248152602001806147b76024913960400191505060405180910390fd5b600b60008373ffffffffffffffffffffffffffffffffffffffff1673ffffffffffffffffffffffffffffffffffffffff16815260200190815260200160002060000160009054906101000a900460ff1661296d576040517f08c379a00000000000000000000000000000000000000000000000000000000081526004018080602001828103825260418152602001806147db6041913960600191505060405180910390fd5b3373ffffffffffffffffffffffffffffffffffffffff166009600083815260200190815260200160002060000160019054906101000a900473ffffffffffffffffffffffffffffffffffffffff1673ffffffffffffffffffffffffffffffffffffffff1614612a27576040517f08c379a000000000000000000000000000000000000000000000000000000000815260040180806020018281038252602c81526020018061478b602c913960400191505060405180910390fd5b6000600c60049054906101000a900463ffffffff1663ffffffff166009600084815260200190815260200160002060040154600660003373ffffffffffffffffffffffffffffffffffffffff1673ffffffffffffffffffffffffffffffffffffffff168152602001908152602001600020600301540281612aa457fe5b049050600034600660003373ffffffffffffffffffffffffffffffffffffffff1673ffffffffffffffffffffffffffffffffffffffff168152602001908152602001600020600201540290506000600c60049054906101000a900463ffffffff1663ffffffff16600660003373ffffffffffffffffffffffffffffffffffffffff1673ffffffffffffffffffffffffffffffffffffffff16815260200190815260200160002060030154830281612b5757fe5b04905082811115612bb3576040517f08c379a000000000000000000000000000000000000000000000000000000000815260040180806020018281038252602581526020018061473f6025913960400191505060405180910390fd5b600081340190508260096000878152602001908152602001600020600401600082825403925050819055508160096000878152602001908152602001600020600501600082825401925050819055508573ffffffffffffffffffffffffffffffffffffffff166108fc829081150290604051600060405180830381858888f19350505050158015612c48573d6000803e3d6000fd5b50505050505050565b600b6020528060005260406000206000915090508060000160009054906101000a900460ff1690806001018054600181600116156101000203166002900480601f016020809104026020016040519081016040528092919081815260200182805460018160011615610100020316600290048015612d105780601f10612ce557610100808354040283529160200191612d10565b820191906000526020600020905b815481529060010190602001808311612cf357829003601f168201915b5050505050905082565b6000600960008381526020019081526020016000206004015490506000600960008481526020019081526020016000206004018190555060006009600084815260200190815260200160002060000160006101000a81548160ff02191690831515021790555060006009600084815260200190815260200160002060020160009054906101000a900473ffffffffffffffffffffffffffffffffffffffff1690506000600860008373ffffffffffffffffffffffffffffffffffffffff1673ffffffffffffffffffffffffffffffffffffffff16815260200190815260200160002060010160006101000a81548160ff0219169083151502179055506000801b600860008373ffffffffffffffffffffffffffffffffffffffff1673ffffffffffffffffffffffffffffffffffffffff16815260200190815260200160002060020181905550612ea16009600085815260200190815260200160002060000160019054906101000a900473ffffffffffffffffffffffffffffffffffffffff166001613db9565b81600d60008282540192505081905550505050565b60606000809054906101000a900473ffffffffffffffffffffffffffffffffffffffff1673ffffffffffffffffffffffffffffffffffffffff163373ffffffffffffffffffffffffffffffffffffffff1614612f5d576040517f08c379a00000000000000000000000000000000000000000000000000000000081526004018080602001828103825260298152602001806148456029913960400191505060405180910390fd5b6004805480602002602001604051908101604052809291908181526020018280548015612fa957602002820191906000526020600020905b815481526020019060010190808311612f95575b5050505050905090565b600d5481565b6060600580548060200260200160405190810160405280929190818152602001828054801561303d57602002820191906000526020600020905b8160009054906101000a900473ffffffffffffffffffffffffffffffffffffffff1673ffffffffffffffffffffffffffffffffffffffff1681526020019060010190808311612ff3575b5050505050905090565b60096020528060005260406000206000915090508060000160009054906101000a900460ff16908060000160019054906101000a900473ffffffffffffffffffffffffffffffffffffffff16908060010154908060020160009054906101000a900473ffffffffffffffffffffffffffffffffffffffff16908060030154908060040154908060050154905087565b6000341161314c576040517f08c379a00000000000000000000000000000000000000000000000000000000081526004018080602001828103825260178152602001807f546865207072656d69756d2063616e6e6f74206265203000000000000000000081525060200191505060405180910390fd5b600860008273ffffffffffffffffffffffffffffffffffffffff1673ffffffffffffffffffffffffffffffffffffffff16815260200190815260200160002060010160009054906101000a900460ff161561320f576040517f08c379a00000000000000000000000000000000000000000000000000000000081526004018080602001828103825260208152602001807f546869732064657669636520616c72656164792068617320616e206f7264657281525060200191505060405180910390fd5b6001600281111561321c57fe5b600860008373ffffffffffffffffffffffffffffffffffffffff1673ffffffffffffffffffffffffffffffffffffffff16815260200190815260200160002060010160019054906101000a900460ff16600281111561327757fe5b146132ea576040517f08c379a000000000000000000000000000000000000000000000000000000000815260040180806020018281038252601f8152602001807f5468697320646576696365206973206e6f7420617070726f766564207965740081525060200191505060405180910390fd5b600660003373ffffffffffffffffffffffffffffffffffffffff1673ffffffffffffffffffffffffffffffffffffffff16815260200190815260200160002060000160009054906101000a900460ff166133485761334733613fb5565b5b60006133558585856141cf565b9050600033828434604051602001808573ffffffffffffffffffffffffffffffffffffffff1673ffffffffffffffffffffffffffffffffffffffff1660601b81526014018481526020018373ffffffffffffffffffffffffffffffffffffffff1673ffffffffffffffffffffffffffffffffffffffff1660601b8152601401828152602001945050505050604051602081830303815290604052805190602001209050600034600660003373ffffffffffffffffffffffffffffffffffffffff1673ffffffffffffffffffffffffffffffffffffffff16815260200190815260200160002060020154029050600d5481111561349c576040517f08c379a000000000000000000000000000000000000000000000000000000000815260040180806020018281038252603c8152602001806146df603c913960400191505060405180910390fd5b6040518060e001604052806001151581526020013373ffffffffffffffffffffffffffffffffffffffff1681526020018481526020018573ffffffffffffffffffffffffffffffffffffffff16815260200134815260200182815260200160008152506009600084815260200190815260200160002060008201518160000160006101000a81548160ff02191690831515021790555060208201518160000160016101000a81548173ffffffffffffffffffffffffffffffffffffffff021916908373ffffffffffffffffffffffffffffffffffffffff1602179055506040820151816001015560608201518160020160006101000a81548173ffffffffffffffffffffffffffffffffffffffff021916908373ffffffffffffffffffffffffffffffffffffffff1602179055506080820151816003015560a0820151816004015560c08201518160050155905050600482908060018154018082558091505090600182039060005260206000200160009091929091909150555080600d6000828254039250508190555034600d6000828254019250508190555081600860008673ffffffffffffffffffffffffffffffffffffffff1673ffffffffffffffffffffffffffffffffffffffff168152602001908152602001600020600201819055506001600860008673ffffffffffffffffffffffffffffffffffffffff1673ffffffffffffffffffffffffffffffffffffffff16815260200190815260200160002060010160006101000a81548160ff021916908315150217905550600660003373ffffffffffffffffffffffffffffffffffffffff1673ffffffffffffffffffffffffffffffffffffffff16815260200190815260200160002060050182908060018154018082558091505090600182039060005260206000200160009091929091909150555050505050505050565b6008602052806000526040600020600091509050806000018054600181600116156101000203166002900480601f0160208091040260200160405190810160405280929190818152602001828054600181600116156101000203166002900480156137fa5780601f106137cf576101008083540402835291602001916137fa565b820191906000526020600020905b8154815290600101906020018083116137dd57829003601f168201915b5050505050908060010160009054906101000a900460ff16908060010160019054906101000a900460ff16908060020154905084565b6000809054906101000a900473ffffffffffffffffffffffffffffffffffffffff1673ffffffffffffffffffffffffffffffffffffffff163373ffffffffffffffffffffffffffffffffffffffff16146138d5576040517f08c379a00000000000000000000000000000000000000000000000000000000081526004018080602001828103825260298152602001806148456029913960400191505060405180910390fd5b600060028111156138e257fe5b600860008473ffffffffffffffffffffffffffffffffffffffff1673ffffffffffffffffffffffffffffffffffffffff16815260200190815260200160002060010160019054906101000a900460ff16600281111561393d57fe5b14613993576040517f08c379a00000000000000000000000000000000000000000000000000000000081526004018080602001828103825260278152602001806147646027913960400191505060405180910390fd5b80600860008473ffffffffffffffffffffffffffffffffffffffff1673ffffffffffffffffffffffffffffffffffffffff16815260200190815260200160002060000190805190602001906139e99291906145c5565b506000809054906101000a900473ffffffffffffffffffffffffffffffffffffffff1673ffffffffffffffffffffffffffffffffffffffff163373ffffffffffffffffffffffffffffffffffffffff161415613aa8576001600860008473ffffffffffffffffffffffffffffffffffffffff1673ffffffffffffffffffffffffffffffffffffffff16815260200190815260200160002060010160016101000a81548160ff02191690836002811115613a9e57fe5b0217905550613b0d565b6000600860008473ffffffffffffffffffffffffffffffffffffffff1673ffffffffffffffffffffffffffffffffffffffff16815260200190815260200160002060010160016101000a81548160ff02191690836002811115613b0757fe5b02179055505b60038290806001815401808255809150509060018203906000526020600020016000909192909190916101000a81548173ffffffffffffffffffffffffffffffffffffffff021916908373ffffffffffffffffffffffffffffffffffffffff160217905550505050565b6000809054906101000a900473ffffffffffffffffffffffffffffffffffffffff1681565b600080601b90505b601d8160ff161015613c9d5760018582868660405160008152602001604052604051808581526020018460ff1660ff1681526020018381526020018281526020019450505050506020604051602081039080840390855afa158015613c0d573d6000803e3d6000fd5b50505060206040510351915060016002811115613c2657fe5b600860008473ffffffffffffffffffffffffffffffffffffffff1673ffffffffffffffffffffffffffffffffffffffff16815260200190815260200160002060010160019054906101000a900460ff166002811115613c8157fe5b1415613c905781915050613ca3565b8080600101915050613ba4565b50600090505b9392505050565b600660008373ffffffffffffffffffffffffffffffffffffffff1673ffffffffffffffffffffffffffffffffffffffff1681526020019081526020016000206004018190806001815401808255809150509060018203906000526020600020016000909192909190915055506000600660008473ffffffffffffffffffffffffffffffffffffffff1673ffffffffffffffffffffffffffffffffffffffff1681526020019081526020016000206003015490506001810390506000811115613db45780600660008573ffffffffffffffffffffffffffffffffffffffff1673ffffffffffffffffffffffffffffffffffffffff168152602001908152602001600020600301819055505b505050565b6000600660008473ffffffffffffffffffffffffffffffffffffffff1673ffffffffffffffffffffffffffffffffffffffff1681526020019081526020016000206001015490508115613e97576001600660008573ffffffffffffffffffffffffffffffffffffffff1673ffffffffffffffffffffffffffffffffffffffff1681526020019081526020016000206001015401600660008573ffffffffffffffffffffffffffffffffffffffff1673ffffffffffffffffffffffffffffffffffffffff16815260200190815260200160002060010181905550613f70565b6001600660008573ffffffffffffffffffffffffffffffffffffffff1673ffffffffffffffffffffffffffffffffffffffff168152602001908152602001600020600101541115613f6f576001600660008573ffffffffffffffffffffffffffffffffffffffff1673ffffffffffffffffffffffffffffffffffffffff1681526020019081526020016000206001015403600660008573ffffffffffffffffffffffffffffffffffffffff1673ffffffffffffffffffffffffffffffffffffffff168152602001908152602001600020600101819055505b5b600660008473ffffffffffffffffffffffffffffffffffffffff1673ffffffffffffffffffffffffffffffffffffffff16815260200190815260200160002050505050565b600660008273ffffffffffffffffffffffffffffffffffffffff1673ffffffffffffffffffffffffffffffffffffffff16815260200190815260200160002060000160009054906101000a900460ff161561405b576040517f08c379a000000000000000000000000000000000000000000000000000000000815260040180806020018281038252602681526020018061486e6026913960400191505060405180910390fd5b6001600660008373ffffffffffffffffffffffffffffffffffffffff1673ffffffffffffffffffffffffffffffffffffffff16815260200190815260200160002060000160006101000a81548160ff0219169083151502179055506001600660008373ffffffffffffffffffffffffffffffffffffffff1673ffffffffffffffffffffffffffffffffffffffff16815260200190815260200160002060010181905550600c60049054906101000a900463ffffffff1663ffffffff16600660008373ffffffffffffffffffffffffffffffffffffffff1673ffffffffffffffffffffffffffffffffffffffff1681526020019081526020016000206003018190555060018190806001815401808255809150509060018203906000526020600020016000909192909190916101000a81548173ffffffffffffffffffffffffffffffffffffffff021916908373ffffffffffffffffffffffffffffffffffffffff160217905550506141cc8161444c565b50565b60008383836040516020018084805190602001908083835b6020831061420a57805182526020820191506020810190506020830392506141e7565b6001836020036101000a03801982511681845116808217855250505050505090500183805190602001908083835b6020831061425b5780518252602082019150602081019050602083039250614238565b6001836020036101000a03801982511681845116808217855250505050505090500182805190602001908083835b602083106142ac5780518252602082019150602081019050602083039250614289565b6001836020036101000a03801982511681845116808217855250505050505090500193505050506040516020818303038152906040528051906020012090506007600082815260200190815260200160002060000160009054906101000a900460ff1615614365576040517f08c379a000000000000000000000000000000000000000000000000000000000815260040180806020018281038252602481526020018061471b6024913960400191505060405180910390fd5b6040518060800160405280600115158152602001858152602001848152602001838152506007600083815260200190815260200160002060008201518160000160006101000a81548160ff02191690831515021790555060208201518160010190805190602001906143d89291906144f2565b5060408201518160020190805190602001906143f59291906144f2565b5060608201518160030190805190602001906144129291906144f2565b5090505060028190806001815401808255809150509060018203906000526020600020016000909192909190915055508090509392505050565b600660008273ffffffffffffffffffffffffffffffffffffffff1673ffffffffffffffffffffffffffffffffffffffff16815260200190815260200160002060010154600c60009054906101000a900463ffffffff1663ffffffff1602600660008373ffffffffffffffffffffffffffffffffffffffff1673ffffffffffffffffffffffffffffffffffffffff1681526020019081526020016000206002018190555050565b828054600181600116156101000203166002900490600052602060002090601f016020900481019282601f1061453357805160ff1916838001178555614561565b82800160010185558215614561579182015b82811115614560578251825591602001919060010190614545565b5b50905061456e9190614645565b5090565b82600381019282156145b4579160200282015b828111156145b35782518290805190602001906145a39291906144f2565b5091602001919060010190614585565b5b5090506145c1919061466a565b5090565b828054600181600116156101000203166002900490600052602060002090601f016020900481019282601f1061460657805160ff1916838001178555614634565b82800160010185558215614634579182015b82811115614633578251825591602001919060010190614618565b5b5090506146419190614645565b5090565b61466791905b8082111561466357600081600090555060010161464b565b5090565b90565b61469391905b8082111561468f57600081816146869190614696565b50600101614670565b5090565b90565b50805460018160011615610100020316600290046000825580601f106146bc57506146db565b601f0160209004906000526020600020908101906146da9190614645565b5b5056fe54686520636f6e74726163742062616c616e636520697320696e737566696369656e7420746f2067756172616e746565207468697320706f6c69637954686973206361722068617320616c7265616479206265656e207265676973746572656454686520636c61696d61626c6520616d6f756e742065786565647320746865206c696d697454686973206465766963652068617320616c7265616479206265656e20726567697374657265644f6e6c79206f776e6572206f662074686520706f6c6963792063616e20636c61696d207468652066756e647354686520726570616972206665652073686f756c64206265206d6f7265207468616e203054686520676976656e20706172746e6572206164647265737320646f65736e277420657869737420616d6f6e67207265676973746572656420706172746e65727354686973206d657373616765206469646e277420706173732074686520766572696669636174696f6e4f6e6c792061646d696e6973747261746f722063616e2063616c6c20746869732066756e6374696f6e546865206163636f756e742068617320616c7265616479206265656e206163746976617465645468697320706172746e65722068617320616c7265616479206265656e2072656769737465726564a265627a7a7231582066c88c65605d544fae035c6bf2c0724aa7c2755b29577ea69bfcfdaeb79fde9c64736f6c634300050d0032",
  "source": "// SPDX-License-Identifier: MIT\npragma solidity ^0.5.13;\n\n/// control speed limit and gps point of speeding\n/// distance for bonus\n// Todo: add safemath\n// Todo: review uint sizes and downgrade where possible\n// Todo: add pagination on getters\n\ncontract DriveSlowSafe {\n    /// WHO\n    struct Holder {\n        bool isActive;\n        uint256 rating;\n        uint256 multiplier;\n        uint256 penaltyMultiplier;\n        //        uint accumulatedKM;\n        bytes32[] penalties;\n        bytes32[] policies;\n    }\n\n    /// WHAT\n    struct Vehicle {\n        bool registered;\n        string brand;\n        string model;\n        string year;\n        // string vin;\n    }\n\n    /// WITH\n    struct Device {\n        //Intrinsic properties\n        string imei;\n        bool hasOrder;\n        // uint32 freq;\n        Status status;\n        bytes32 policy;\n    }\n\n    /// ON WHAT CONDITIONS\n    struct Policy {\n        bool isActive;\n        address policyHolder;\n        bytes32 vehicle;\n        address device;\n        // string startDate;\n        // string endDate;\n        uint256 premium;\n        uint256 locked;\n        uint256 fundsUsed;\n    }\n\n    /// Will be used to store meaningful data data points\n    struct DataPoint {\n        string[3] accelerometer;\n        string latitude;\n        string longitude;\n        string random;\n        string timestamp;\n    }\n\n    struct Partner {\n        bool registered;\n        string name;\n    }\n\n    enum Status {\n        waitingApproval,\n        whitelisted,\n        blocked\n    }\n\n    /// STORAGE MAPPINGS\n    address payable public administrator;\n    address[] private holdersIDs;\n    bytes32[] private vehiclesIds;\n    address[] private deviceIDs;\n    bytes32[] private policyIDs;\n    address[] private partnersIDs;\n    mapping (address => Holder) public holders;\n    mapping (bytes32 => Vehicle) public vehicles;\n    mapping (address => Device) public devices;\n    mapping (bytes32 => Policy) public policies;\n    mapping (bytes32 => DataPoint) public dataPoints;\n    mapping (address => Partner) public partners;\n\n    uint32 private alpha = 2;  // to calculate multipliers of users\n    uint32 private theta = 1000; // to calculate penalty multiplier\n    uint32 private speed = 50;  // maximal allowed speed\n    uint256 public balance;\n\n    constructor() public payable {\n        require(msg.value > 0, \"The contract need to be funded\");\n        administrator = msg.sender;\n        balance = msg.value;\n    }\n\n    modifier onlyAdministrator() {\n        require(msg.sender == administrator, \"Only administrator can call this function\");\n        _;\n    }\n\n    /// Admin functions\n    function approveDevice(address _walletAddress, string memory _imei) public onlyAdministrator {\n        require(devices[_walletAddress].status == Status.waitingApproval, \"This device has already been registered\");\n\n        devices[_walletAddress].imei = _imei;\n\n        if (msg.sender == administrator) {\n            devices[_walletAddress].status = Status.whitelisted;\n        } else {\n            devices[_walletAddress].status = Status.waitingApproval;\n        }\n        deviceIDs.push(_walletAddress);  // POSSIBLE BUG may create two id in the array\n    }\n\n    function registerPartner(address _partner, string memory name) public onlyAdministrator {\n        require(!partners[_partner].registered, \"This partner has already been registered\");\n\n        partners[_partner] = Partner(true, name);\n        partnersIDs.push(_partner);\n    }\n\n    function kill() public onlyAdministrator {\n        selfdestruct(administrator);\n    }\n\n    /// Policy holder functions\n    function signPolicy(string memory _brand, string memory _model, string memory _year, address _device) public payable {\n        require(msg.value > 0, \"The premium cannot be 0\");\n        require(!devices[_device].hasOrder, \"This device already has an order\");\n        require(devices[_device].status == Status.whitelisted, \"This device is not approved yet\");\n\n        // activate policy holder account\n        if (!holders[msg.sender].isActive) {\n            activateAccount(msg.sender);\n        }\n\n        bytes32 _vehicleId = registerVehicle(_brand, _model, _year);\n        bytes32 hash = keccak256(abi.encodePacked(msg.sender, _vehicleId, _device, msg.value));\n\n        // Record policy\n        uint256 toLock = holders[msg.sender].multiplier * msg.value;\n        require(toLock <= balance, \"The contract balance is insuficient to guarantee this policy\");\n        policies[hash] = Policy(true, msg.sender, _vehicleId, _device, msg.value, toLock, 0);\n        policyIDs.push(hash);\n\n        // add premium and supstract locked funds to the contract balance\n        balance -= toLock;\n        balance += msg.value;\n\n        // Record change in device\n        devices[_device].policy = hash;\n        devices[_device].hasOrder = true;\n\n        holders[msg.sender].policies.push(hash);\n    }\n\n    function payRepair(address payable _partner, bytes32 _policy) public payable {\n        require(msg.value > 0, \"The repair fee should be more than 0\");\n        require(partners[_partner].registered, \"The given partner address doesn't exist among registered partners\");\n        require(policies[_policy].policyHolder == msg.sender, \"Only owner of the policy can claim the funds\");\n\n        uint256 claimable = holders[msg.sender].penaltyMultiplier * policies[_policy].locked / theta;\n        uint256 cleanGrant = holders[msg.sender].multiplier * msg.value;  // the grant without applied penalties\n        uint256 grant = cleanGrant * holders[msg.sender].penaltyMultiplier / theta;\n        require(grant <= claimable, \"The claimable amount exeeds the limit\");\n\n        // the funds that the contract should transfer to the partner\n        uint256 toPay = msg.value + grant;\n        policies[_policy].locked -= cleanGrant;\n        policies[_policy].fundsUsed += grant;\n\n        _partner.transfer(toPay);\n    }\n\n    /// backend functions\n    function receiveMessage(\n        string memory _accel1, string memory _accel2, string memory _accel3, string memory _latitude, string memory _longitude,\n        string memory _random, string memory _timestamp, bytes32 _r, bytes32 _s\n    ) public {\n        string memory _message = string(abi.encodePacked(\n                \"{\\\"message\\\":{\\\"accelerometer\\\":[\", _accel1 ,\",\", _accel2 ,\",\", _accel3, \"],\\\"latitude\\\":\",\n                _latitude, \",\\\"longitude\\\":\", _longitude, \",\\\"timestamp\\\":\\\"\", _timestamp, \"\\\",\\\"random\\\":\\\"\", _random, \"\\\"}}\"\n            ));\n\n        bytes32 hash = keccak256(bytes(_message));\n        require(keccak256(abi.encodePacked(dataPoints[hash].random)) == keccak256(abi.encodePacked('')), \"Such datapoint already exists\");\n\n        address _deviceId = verifyMessage(hash, _r, _s);\n        require(!(_deviceId == address(0)), \"This message didn't pass the verification\");\n        require(devices[_deviceId].hasOrder, \"This device has no order yet\");\n\n        dataPoints[hash] = DataPoint([_accel1, _accel2, _accel3], _latitude, _longitude, _random, _timestamp);\n        bytes32 policy = devices[_deviceId].policy;\n        address holder = policies[policy].policyHolder;\n        applyPenalty(holder, hash);\n    }\n\n    function cancelPolicy(bytes32 _policy) public {\n        // Todo: set policy deactivation\n        // require time.now > policy.endDate\n\n        // handle policy deactivation and funds unlock to smartContract\n        uint256 unlocking = policies[_policy].locked;\n        policies[_policy].locked = 0;\n        policies[_policy].isActive = false;\n\n        // unlink device\n        address device = policies[_policy].device;\n        devices[device].hasOrder = false;\n        devices[device].policy = bytes32(0);\n\n        // upgrade user rating for successful policy usage\n        updateRating(policies[_policy].policyHolder, true);\n\n        balance += unlocking;\n    }\n\n    /// utility functions\n    function activateAccount(address _holderAddress) internal {\n        require(!holders[_holderAddress].isActive, \"The account has already been activated\");\n        holders[_holderAddress].isActive = true;\n        holders[_holderAddress].rating = 1;\n        holders[_holderAddress].penaltyMultiplier = theta;\n        holdersIDs.push(_holderAddress);\n        updateMultiplier(_holderAddress);\n    }\n\n    function updateMultiplier(address _holderAddress) internal {\n        holders[_holderAddress].multiplier = alpha * holders[_holderAddress].rating;\n    }\n\n    function updateRating(address _holderAddress, bool _positive) internal {\n        uint256 prevState = holders[_holderAddress].rating;\n\n        if (_positive) {\n            holders[_holderAddress].rating = holders[_holderAddress].rating + 1;\n        } else {\n            if (holders[_holderAddress].rating > 1) {\n                holders[_holderAddress].rating = holders[_holderAddress].rating - 1;\n            }\n        }\n\n        if (prevState != holders[_holderAddress].rating) {\n            updateMultiplier;\n        }\n    }\n\n    function registerVehicle(string memory _brand, string memory _model, string memory _year) internal returns(bytes32 car_hash) {\n        car_hash = keccak256(abi.encodePacked(_brand, _model, _year));\n        require(!vehicles[car_hash].registered, \"This car has already been registered\");\n\n        vehicles[car_hash] = Vehicle(true, _brand, _model, _year);\n        vehiclesIds.push(car_hash);\n        return car_hash;\n    }\n\n    function verifyMessage(bytes32 _hash, bytes32 _r, bytes32 _s) internal view returns(address _deviceId) {\n        for (uint8 v = 27; v < 29; v++) {\n            _deviceId = ecrecover(_hash, v, _r, _s);\n\n            if (devices[_deviceId].status == Status.whitelisted) {\n                return(_deviceId);\n            }\n        }\n        return address(0);\n    }\n\n    function applyPenalty(address _holder, bytes32 _dataPoint) internal {\n        holders[_holder].penalties.push(_dataPoint);\n        //        updateRating(_holder, false);\n        uint256 _penaltyMultiplier = holders[_holder].penaltyMultiplier;\n        _penaltyMultiplier -= 1;\n        if (_penaltyMultiplier > 0) {\n            holders[_holder].penaltyMultiplier = _penaltyMultiplier;\n        }\n    }\n\n    function showMyPenalties() public view returns(bytes32[] memory){\n        return holders[msg.sender].penalties;\n    }\n\n    function showMyPolicies() public view returns(bytes32[] memory) {\n        return holders[msg.sender].policies;\n    }\n\n    function getHoldersIds() public view onlyAdministrator returns(address[] memory) {\n        return holdersIDs;\n    }\n\n    function getVehicleIds() public view onlyAdministrator returns(bytes32[] memory) {\n        return vehiclesIds;\n    }\n\n    function getDeviceIds() public view onlyAdministrator returns(address[] memory) {\n        return deviceIDs;\n    }\n\n    function getPolicyIds() public view onlyAdministrator returns(bytes32[] memory) {\n        return policyIDs;\n    }\n\n    function getPartnerIds() public view returns(address[] memory) {\n        return partnersIDs;\n    }\n}",
  "sourcePath": "/Users/nikitushka/ZhouDev/blockchain/drive-slow-safe-sc/contracts/driveSlowSafe.sol",
  "compiler": {
    "name": "solc",
    "version": "0.5.13+commit.5b0b510c.Emscripten.clang"
  },
  "schemaVersion": "3.4.1",
  "updatedAt": "2021-07-10T19:21:42.438Z",
  "networkType": "ethereum",
  "devdoc": {
    "methods": {}
  },
  "userdoc": {
    "methods": {
      "approveDevice(address,string)": {
        "notice": "Admin functions"
      },
      "receiveMessage(string,string,string,string,string,string,string,bytes32,bytes32)": {
        "notice": "backend functions"
      },
      "signPolicy(string,string,string,address)": {
        "notice": "Policy holder functions"
      }
    },
    "notice": "control speed limit and gps point of speeding distance for bonus"
  }
}